:020000040000FA
:10000000D0110100E5010000FD1A0000F51A000002
:10001000F91A0000DB1A0000191B000000000000A4
:10002000000000000000000000000000011B0000B4
:10003000DF1A000000000000FF1A0000031B000090
:10004000051B0000FB010000FB010000FB0100009C
:10005000FB010000E11A0000FB01000000F002F8C3
:1000600000F0B0F80AA090E8000C82448344AAF1A2
:100070000107DA4501D100F0A5F8AFF2090EBAE8A0
:100080000F0013F0010F18BFFB1A43F001031847CC
:100090008C260000AC2600000A444FF0000C10F83B
:1000A000013B13F0070408BF10F8014B1D1108BFF6
:1000B00010F8015B641E05D010F8016B641E01F896
:1000C000016BF9D113F0080F1EBF10F8014BAD1CE6
:1000D0000C1B09D16D1E58BF01F801CBFAD505E004
:1000E00014F8016B01F8016B6D1EF9D59142D6D35E
:1000F000704700000023002400250026103A28BF86
:1001000078C1FBD8520728BF30C148BF0B60704789
:100110006E2900F05581702900F09782662902F05F
:100120007B82652902F07882672902F07582612955
:1001300002F0748203681B0A28BF41F0800169291C
:1001400000F00281642900F0FF80752900F0FC8036
:100150006F2900F02482782900F06382E92900F0F9
:10016000BF81E42900F0BC81F52900F0B981EF29B5
:1001700000F02182F82900F062820368DB0928BFC1
:1001800041F08001632900F06587732900F06A87D8
:10019000E32900F07587F32900F07A870020704783
:1001A0001FB500F0C7FF04000020002102F01EFA76
:1001B000401C60600020002102F002FAE0601FBDD8
:1001C00010B510BD00F088FF1146FFF7E9FF02F0FF
:1001D000E7F801F065F803B4FFF7F2FF03BC01F0A4
:1001E000ADF8000008480047FEE7FEE7FEE7FEE73F
:1001F000FEE7FEE7FEE7FEE7FEE7FEE70348044909
:10020000044A054B704700005D000000D00101006A
:10021000D0110100D00D0100D00D01001CB50C461D
:10022000064B7B4469460090204600F0E2F8044605
:100230000020694600F0F0F820461CBDF3010000E4
:1002400010B5431C02E010F8011B71B18107FAD10F
:100250004FF0013202C88C1A8C4314EAC211F9D053
:10026000C01A0A0603D0C01E10BDC01A10BD0A0471
:1002700001D0801E10BD0902FCD0401E10BD704789
:100280007047704770B5044685690068C10601D59E
:10029000302600E02026C00707D070BDD4E9012138
:1002A00030469047206A401C20626D1EF6D570BD16
:1002B00070B5044685690078C00707D170BDD4E9E0
:1002C000012120209047206A401C20626D1EF6D537
:1002D00070BD09684A0501D540B27047C905FCD513
:1002E00000B2704709684A0501D5C0B27047C90518
:1002F000FCD580B2704770B50C460546012A05D082
:100300002878800600D5EA69002302E0012305E091
:100310005B1C934202D2E05C0028F9D1A869E61880
:10032000C01AA861286A184428622846FFF7AAFF65
:1003300004E0D5E9012114F8010B9047B442F8D349
:100340002846FFF7B5FF70BD2DE9F04106460024B1
:1003500010687529314616A510D0FFF7BAFF00289E
:1003600002DA404213A507E031688A0701D512A5D9
:1003700002E0490704D511A5012401E0FFF7B2FF0F
:1003800000210A2206F1240709E0B0FBF2FCB0FBD1
:10039000F2F302FB1C00303078541846491C002848
:1003A000F3D123462A463046BDE8F04100F061BA59
:1003B000000000002D0000002B00000020000000C5
:1003C00011680268006A530501D508700AE0D30578
:1003D00001D5088006E0130603D5C217C1E9000263
:1003E00000E008600120704701694A1C026108783A
:1003F000704700B58FB0CDE9013100210591054965
:100400007944CDE903101146684600F029F90FB090
:1004100000BD0000E5FFFFFF0A6802F8010B0A605B
:10042000704700002DE9FF5F15468A460446DFF855
:10043000AC80F8440027D8E900103E46CDE9001012
:1004400010E03AF816106A4602A800F025FE411C9A
:1004500007D02178890603D5E269391891420DD871
:100460000744761C2078800602D5E069B84205DD95
:10047000AE42E6DB3AF816000028E2D1A069C01BC4
:10048000A0612046FFF7FEFED8E90010CDE900107C
:10049000002017E03AF818106A4602A800F0FCFDA8
:1004A000B0F1FF3F81460BD000250DF1080B05E0B0
:1004B000D4E901211BF8050090476D1C4D45F7D389
:1004C00008F10100B0428046E4DB206A3844206233
:1004D0002046FFF7EDFEBDE8FF9F0000EA21000087
:1004E0002DE9F0418046D21D22F007020025D2E915
:1004F0000002F52915A614D0011E72F1000106DADA
:100500000023D0EB030063EB020211A608E0D8F849
:1005100000108B0701D50FA602E0490701D50EA6F2
:1005200001251146002408F1240704E000F05CF9DD
:1005300030323A55641C50EA0102F7D12B4632465C
:1005400021464046BDE8F04100F093B900000000AC
:100550002D0000002B0000002000000030B400211E
:1005600000F1240408E002F00705D208303542EA21
:100570004372DB086554491C52EA0305F3D1046851
:10058000002310A2250707D5A40600D421B1C46911
:1005900001230DA2641EC46130BC00F06AB910B51D
:1005A000044621461068FFF79DFE02462046BDE83E
:1005B00010400023D2E7D21D22F00701D1E9002329
:1005C000CCE700000000000030000000F0B40D4651
:1005D0000188090502D5214C7C4402E01F4C7C4473
:1005E0000E34002100F1240608E002F00F07120982
:1005F000E75D42EA03721B097754491C52EA03077C
:10060000F3D102780023120704D5702D06D009B16A
:10061000022311342246F0BC00F02BB90123103420
:10062000F8E770B504460D4621461068FFF75AFEFC
:10063000024629462046BDE870400023C6E7D21D89
:1006400022F00703D3E90023C0E70368126843F0F0
:10065000200303600823C3610023B7E74C20000098
:100660002DE9F05F894604464FF0000ADFF874B1C7
:10067000FB44C0F820A02046E1688847002874D0D9
:10068000252806D0D4E901219047206A401C206229
:10069000F1E700265F462046E168884720280546A6
:1006A00007DB312D05D2781910F8200C08B106436C
:1006B000F1E7B00701D526F00406C4F81CA0002716
:1006C000C4F818A02A2D09D0284601F049FA38B3F9
:1006D00004EB8708303DC8F8185019E059F8041B9E
:1006E000204604EB87029161E1688847012F0546A7
:1006F00018D1E069002820DA26F020061DE0D8F89D
:10070000180000EB800005EB40003038C8F81800F6
:100710002046E1688847054601F022FA0028EED11C
:10072000012F0AD02E2D08D12046E16888477F1C72
:100730000546022F46F02006C4DBA069002803DA34
:10074000404246F00106A061F00701D026F01006F5
:100750006C2D0BD0682D09D04C2D39D06A2D35D099
:10076000742D35D07A2D33D016E038E0E1682F466D
:1007700020468847B842054609D16C2F26D04FF451
:100780008060E168064320468847054604E06C2FF8
:100790001AD04FF4807006430DB3A5F1410019281B
:1007A00002D8203546F400664A462946204626608F
:1007B0004E46FFF7ADFC80B101280BD0F61D26F0A8
:1007C000070000F1080956E74020E4E78020D8E759
:1007D0000020D6E706F104094DE7284652E7206AD3
:1007E000BDE8F09FDC1F000030B5B0F10A024FEA0F
:1007F000900E71F100034EEA817EB0EB0E0061EBCA
:1008000091014FEA101E4EEA017E10EB0E0041EB03
:1008100011114FEA102E4EEA016E10EB0E0041EB63
:1008200011214FEA104E4EEA014E10EB0E0041EB43
:100830001141401841F100014FEAD00040EA4170F7
:100840004FEAD10110EB80054FEA810444EA90742D
:1008500044EB01046D1944EB0404521BA3414FF017
:10086000000348BF0A3200D530BD401C41F10001F1
:1008700030BD2DE9F0470D4699469246044600F1F9
:1008800024080168880604D5E06921F01001216080
:1008900000E00120A84201DD471B00E00027A1691C
:1008A0007A1902EB0900081AA0612078C00602D468
:1008B0002046FFF7E7FC002608E0D4E901211AF8FA
:1008C00006009047206A401C761C20624E45F4DBEF
:1008D0002078C0060AD52046FFF7D4FC06E0D4E90C
:1008E000012130209047206A401C2062381EA7F169
:1008F0000107F4DC07E0D4E9012118F8050090476E
:10090000206A401C2062281EA5F10105F3DC204668
:10091000FFF7CEFC2078000602D50220BDE8F08764
:100920000120FBE770472DE9FF4F0C461E464FF0B4
:10093000FF378BB0D2E90001DDF860800A908A466B
:10094000C1F30A5505B93D46002108464FF00000A5
:10095000BAF1000F00F4400005DA00EB80004FF41C
:10096000400101EA50004FEA9059B9F1010F00DD52
:10097000B9460A9850EA4A000ED044F61050A5F243
:10098000FF3545432F14B8F1000F1ED07542291EC4
:100990001EDDC9F100021CE0B8F1010F4FF00000AC
:1009A00001D0302103E0F24305E02154401CB04265
:1009B000FBDB30460022002121540B99C1F808804E
:1009C000C1E900200FB0BDE8F08FBD1B6D1CDEE754
:1009D0004A4600DA694206A800F0F0FB06AB93E84D
:1009E000070003AB83E8070050460A9900F0ADFC0E
:1009F0008DE80700A0F500501F3800900398002DE7
:100A00000ADD42F21F014A460844002303A903906D
:100A1000684600F016FF09E0A0F500504A461F386E
:100A2000002303A90390684600F020FF8DE807002B
:100A30000004000C03D04FF0FF30410800E01046E6
:100A4000B8F1000F03D00022009215461EE0751E7B
:100A500005D4FFF7C9FE303262556D1EF9D5B34695
:100A60000122084302D000227F1C04E020783028B5
:100A700001D100227F1E002A099784D01DE0112D8C
:100A800007DAFFF7B1FE303262556D1C50EA010201
:100A9000F5D1084302D00098C8B10EE00021681ECD
:100AA00005E0235C625C63542254401E491C814271
:100AB000F7DBAB46A81B401E0990002004F80B0092
:100AC0000B98099AC0F80880C0E9002B7AE7112634
:100AD0004FF0000857E72DE9F04F88460446D21D35
:100AE00022F0070191B0D1E90001CDE90A0101F03E
:100AF00015F802460B98C00F01D02D2007E02068A2
:100B0000810701D52B2002E0202101EAC000032A41
:100B1000099001D0072A05DB03464146204600F034
:100B20000DFB0BE12078800601D5E06900E006208E
:100B3000B8F1650F814606D0B8F1660F18D0B8F14C
:100B4000670F70D131E00020B9F1110F009001DB87
:100B5000112301E009F101030AAA01A90CA8FFF77A
:100B6000E2FEDDE90C70002609F10105834647E04D
:100B700001204B4600904FF000470AAA01A90CA89B
:100B8000FFF7D1FEDDE90DB00C995D46002610B9E6
:100B900009F101000D18B9EB050003D4C0F1FF36CF
:100BA00009F10105A5EB09002BE0B9F1010F01DA0C
:100BB0004FF001090020B9F1110F0090484601DD06
:100BC000112300E003460AAA01A90CA8FFF7ABFE17
:100BD000DDE90C704D4600268346207800070AD4D4
:100BE000AB4500DA5D4601A8012D04DD411911F87D
:100BF000011C302907D04F4502DA17F1040F04DA3F
:100C0000012082460FE06D1EEEE7002F02DCED1B97
:100C10003E4403E0781CA84200DD7D1CB81B00F1B7
:100C2000010A4FF000472078000703D4AA4501DBF2
:100C30004FF0FF3A0021B7F1004F0DF143088DF856
:100C4000431024D002202B23002F01DA7F422D23D2
:100C50000A21021EA0F1010000DC5FB197FBF1FC4C
:100C600097FBF1F201FB1C7C17460CF1300C08F8E5
:100C700001CDEEE7A8F1010003702188090501D537
:100C8000452100E06521A0F1010800F8011C099848
:100C90000FA9A1EB0807FF1D00B10120411901EBCD
:100CA000EA70A1693844081A401EA0612078C00685
:100CB00002D42046FFF7E6FA099828B1D4E90121C9
:100CC0009047206A401C20622078C00622D520462A
:100CD000FFF7D8FA1EE0002E04DBB34502DD01A8C1
:100CE000805D00E03020D4E901219047206A401C5B
:100CF0002062761CAAF101005FEA000A0AD100F026
:100D000019FAC0680168405CD4E901219047206A63
:100D1000401C2062281EA5F10105DCDC07E0D4E9B7
:100D2000012118F8010B9047206A401C2062381EF0
:100D3000A7F10107F3DC2046FFF7BAFA032011B050
:100D400041E600002DE9F04F04460D46D21D22F089
:100D5000070089B0D0E900974846394600F0DEFE2A
:100D60000246F80F01D02D2307E02068810701D546
:100D70002B2302E0202101EAC0038DF820300BB1C3
:100D8000012000E00020032A824601D0072A04DB6C
:100D90002946204600F0D2F93FE12078800601D4B0
:100DA0000D2500E0E569C7F30A560D2D49DA00214B
:100DB0004FEA175B08464FF00000002F00F4400098
:100DC00007DA00EB80004FF4400100EBD07001EA3D
:100DD00060008115012901DD4FF0FF3100224FEA4B
:100DE000850CBCF1180F06D31346ACF118004FF078
:100DF0008052C24003E04FF4801323FA0CF30CF14D
:100E00000C0CBCF1200F04D3ACF1200C09FA0CF04F
:100E100001E007FA0CF000294FF0004801DD18B995
:100E20000FE00ED140450CD319EB02095F4121B907
:100E3000404502D19F4329EA0209BBEB175F00D06E
:100E4000761C2088000502D57B48784402E07A4869
:100E50007844193808AA302302F80A30037C0AF1D2
:100E60000101002E0AF1020A53546A4602DC4FF0D7
:100E7000300101E04FF031014FF001088DF8001012
:100E800002D0A6F2FF3603E059EA470100D06B4ECC
:100E9000002D02DC2178090704D54FF002082E212D
:100EA0008DF80110C44600210BE0C7F303433F0156
:100EB000C35C491C6D1E02F80830052908F10108C1
:100EC00001DA002DF1DC00210CE000EB1973491C64
:100ED0001B786D1E082902F808304FEA091908F13D
:100EE000010801DA002DF0DC21688B0602D516E03E
:100EF000A8F10108E04505DD02EB080313F8013C09
:100F0000302BF5D0B8F1000F09DD02EB080313F820
:100F1000013C2E2B03D1090701D4A8F10108002DB3
:100F200005DD3E2102F808106D1E08F10108407C25
:100F3000002E02F8080008F1010804DA2D2076429C
:100F400002F8080002E02B2002F808000A214FF402
:100F50007A70864208F101080BDB96FBF0F3303320
:100F600002F8083096FBF0F308F1010800FB136665
:100F700001E0642E0CDB642096FBF0F3303302F8C2
:100F8000083096FBF0F308F1010800FB136601E05E
:100F90000A2E06DB96FBF1F0303002F8080008F16B
:100FA000010896FBF1F001FB1060303002F80800F8
:100FB000A16908F1010808EB050202EB0A00081A12
:100FC000A0612078C00602D42046FFF75BF9216AB1
:100FD00008AE01EB0A00206204E0D4E9012116F812
:100FE000010B9047BAF1010AF7D22078C00602D56A
:100FF0002046FFF747F96E4609E016F8010B3E2838
:101000000FD0D4E901219047206A401C2062B8F13A
:101010000108F2D22046FFF74BF909B00320BDE8E2
:10102000F08F206A2844206203E0D4E901213020B7
:1010300090476D1EEBD3F8E72618000002FCFFFF77
:1010400010B5436913B1AFF3008001E0FFF753F926
:10105000012010BD127800F124010A7000224A70AC
:101060000122EDE711684FF0FF32E9E710B543695F
:1010700013B1AFF3008001E0FFF7D4F9012010BDF8
:10108000128800F1240182840022C2840122EDE74B
:1010900011684FF0FF32E9E770B516460C46054679
:1010A00000F040F8036893F80101012806D0FF2CF6
:1010B0000FD8185D68B101202C7070BDD3F80701FE
:1010C0003246214603F2071303442846BDE8704028
:1010D00018474FF0FF3070BD754600F0EBF8AE4694
:1010E00005006946534620F00700854618B020B534
:1010F000FFF784F8BDE820404FF000064FF00007EE
:101100004FF000084FF0000B21F00701AC46ACE8AF
:10111000C009ACE8C009ACE8C009ACE8C0098D461C
:101120007047000010B500F005F8001D10BD00BFAD
:10113000BD140000004870478C0101002DE9F0410A
:101140001F46044603260168072A01F4006004DBF9
:1011500008B116A505E016A503E008B115A500E045
:1011600015A521F010002060A069C01EA0610FB17C
:10117000401EA0612046FFF785F84FB1D4E9012158
:1011800038469047206A401C2062C01C206206E05E
:10119000206AFAE7D4E9012115F8010B9047761E81
:1011A000F8D22046FFF784F8BDE8F0814E414E00AA
:1011B0006E616E00494E4600696E66002DE9F0478B
:1011C000814616468AB0354878440DC88DE80D0032
:1011D00032487844801C03AC0DC884E80D0041F609
:1011E0009B300844372190FBF1F290FBF1F5A5F11B
:1011F000800501FB12041B3C02D56442012000E083
:101200000020DFF898A080460027FA44AAF1BE0A21
:101210000EE0E0070AD03246684607EB470101239B
:101220000AEB810100F022FB8DE8070064107F1CAF
:10123000002CEED1194F7F44AE3F19E0E80715D0DE
:1012400007EB04100DF1180A90E80E008AE80E0072
:10125000C068F04201D1981908903246012306A9CE
:1012600003A800F003FB03AB83E807006D10641CC8
:10127000002DE3D14FF0010332466946B8F1000F6B
:1012800003A802D000F0DDFA01E000F0EFFAC9E9AE
:101290000001C9F808200AB0BDE8F0873815000041
:1012A00010B50446AFF300802046BDE81040FEF7BD
:1012B00092BF0000004870476C0101004FF0013CF4
:1012C00050F8042B51F8043B9A4221D1A2EB0C03B5
:1012D000934313EACC1317D150F8042B51F8043B75
:1012E0009A4215D1A2EB0C03934313EACC130BD112
:1012F00050F8042B51F8043B9A4209D1A2EB0C039D
:10130000934313EACC13DBD04FF00000704700BFCB
:10131000D01A01BAB1FA81F101F0180122FA01F0F4
:10132000CB40C1F12001DBB2C0B2C01A2CFA01F3EC
:10133000D11A914311EAC311E6D17047014918202F
:10134000ABBEFEE72600020070475FEA400C08BF14
:1013500091F0000F4FEA8C234FEAC12243EA51512A
:101360004FEA1C5018BF00F5F0404FEA300018BF9C
:1013700041F000415FEA6C5C00F02980BCF1FF3F66
:1013800008BF40F080407047130C06BF12044FF0B6
:10139000100C4FF0000C130E04BF12020CF1080CDD
:1013A000130F04BF12010CF1040C930F04BF920041
:1013B0000CF1020CD30F04BF52000CF1010C1146CA
:1013C0004FF00002A0F11F00A0EB0C00704711F0DD
:1013D000004F08BF704731F000413FF4D5AF0B0C10
:1013E00006BF09044FF0100C4FF0000C0B0E04BFA9
:1013F00009020CF1080C0B0F04BF09010CF1040CDD
:101400008B0F04BF89000CF1020CCB0F04BF490005
:101410000CF1010CCCF12003A0EB0C0022FA03F339
:1014200002FA0CF241EA030100F10100704720F0DA
:101430007F4C80EA030023F07F47ACEB070303F502
:101440007C5300F0004003F1FF032DE980494FEA8F
:10145000154B09B44FEA144325EA0B4E24EA03481E
:101460000FF2042606EB132749083E785FEA3202A2
:1014700003FB0667C7F5000707FB06F64FEA54377C
:101480004FEAD64606F1020607FB066CCCF1005C7B
:101490004FEA1C472CEA074C07FB06F40CFB06F549
:1014A00004EB15464FEA961634BF00204FF000407B
:1014B0004FEAD13706FB07FC4FEA1C4C0CFB0BF73D
:1014C000D21B03FB0CF761EB07010CFB0EF7B0EB33
:1014D000074072EB17420CFB08F734BFA2EB074240
:1014E000B2EB074261EB17414FEA0C444FEA910718
:1014F00006FB07FC4FEA1C4C0CFB0BF7B0EBC7409C
:1015000072EB573203FB0CF734BFA2EBC742B2EBCE
:10151000C74261EB57310CFB0EF7B0EBC70072EB23
:1015200057720CFB08F734BFA2EBC702B2EBC7023D
:1015300061EB5771039F4FEA816141EA921104EB1D
:10154000CC044FEAD1374FEA826206FB07FC42EA3D
:1015500090124FEA80604FEA1C4C0CFB0BF7D21B39
:1015600003FB0CF761EB07010CFB0EF7B0EB074038
:1015700072EB17420CFB08F734BFA2EB0742B2EB49
:10158000074261EB17414FEA8C554FEA910704EB94
:101590009C2406FB07FC4FEA1C4C0CFB0BF7B0EB42
:1015A000C74072EB573203FB0CF734BFA2EBC742C4
:1015B000B2EBC74261EB57310CFB0EF7B0EBC70043
:1015C00072EB57720CFB08F734BFA2EBC702B2EB09
:1015D000C70261EB577115EB4C254FEA816141EA77
:1015E00092114FEA82624FEAD13742EA901206FB2B
:1015F00007FC44F100044FEA80604FEA1C4C0CFBEE
:101600000BF7D21B03FB0CF761EB07010CFB0EF78A
:10161000B0EB074072EB17420CFB08F734BFA2EBAC
:101620000742B2EB074261EB174115EB1C154FEA7D
:10163000813141EA92414FEA823242EA90424FEAD6
:1016400080304FEA0C7644F1000448EA03434EEA46
:101650000B484FF0000EB2EB080C71EB030724BFF0
:10166000624639464EEB0E0E4FF0000B0018524109
:1016700049414BEB0B0BB2EB080C71EB03077BF111
:10168000000B24BF624639464EEB0E0E4FF0000BA6
:101690000018524149414BEB0B0BB2EB080C71EBBC
:1016A00003077BF1000B24BF624639464EEB0E0E5A
:1016B00051EA020718BF46F0010616EB0E7655F107
:1016C000000254F1000103D5BDE88901BDE800889E
:1016D000BDE88901BDE80048B619524141EB01015E
:1016E000A3F10103704780807F7E7D7C7B7A7978CF
:1016F000777676757473727171706F6E6E6D6C6CD7
:101700006B6A6A6968686766666564646363626178
:101710006160605F5F5E5E5D5D5C5C5B5B5A5A59F9
:101720005958585757565655555554545353525265
:101730005251515050504F4F4F4E4E4D4D4D4C4CBD
:101740004C4B4B4B4A4A4A49494948484847474706
:101750004746464645454544444444434343434243
:10176000424242414141002B9C4630D477002BD06D
:101770001CB54FEA370703B44FF010004FF01001CB
:10178000BAF1000F06D0BCF1000FDCBF40F008003A
:1017900040F008014FF000000FBCBDE810400BF115
:1017A000010BBBF1010F08BF5FEA170722BF12F15F
:1017B000010211F101014FF0004143F1000300F07B
:1017C000004043EA00007047F9D35708D0E746EAE3
:1017D000064613F1400F4FEA16461FDD13F1200FA6
:1017E000DFBF16430A46002120335B42BED0C3F15F
:1017F000200746EA064602FA07F74FEA164646EA87
:101800000706C3F1200722FA03F201FA07F721FACB
:1018100003F14FF0000342EA0702A7E746EA020697
:1018200046EA06464FEA164646EA0106BCBF46EAC5
:101830000646360C4FF000034FF000024FF0000157
:1018400094E72DE9804C9A46934670B491E83800AD
:1018500007C831EA400C48BF34EA430C03D5FFF710
:10186000E6FDFFF780FFF0BCBDE8008C2DE9804C61
:101870009A46934670B491E8380007C810F0804F3C
:1018800008BF13F0804F03D100F005F8FFF76BFF9E
:10189000F0BCBDE8008C20F07F4780EA030023F015
:1018A0007F4C07EB0C03A3F57C5300F00040A3F141
:1018B000FE0392F0000F00F0B38095F0000F00F0EF
:1018C00077802DE901494FEA11404FEA144621EA99
:1018D000004800FB06FC24EA064708FB06F607FB67
:1018E00008F800FB07F718EB06484CEB164C4FEADC
:1018F000124B18EB07484FEA15464CEB174022EA0B
:101900000B4E0BFB06FC25EA06470EFB06F607FB13
:101910000EFE0BFB07F71EEB064E4CEB164C4FF082
:1019200000061EEB074E4CEB174B18EB0B0840F173
:10193000000018EB0E0B58EB000840F100008F1A66
:101940004FF000013CBFC943661B14BFB5EB040C4C
:1019500000213CBFC943F61B4FEA17444EEA8E0EE6
:1019600027EA04454FEA1C4704FB07622CEA074CB0
:1019700005FB07F70CFB05F604FB0CFC16EB074612
:1019800042EB174216EB0C4642EB1C421BEB0606E1
:1019900058EB0202414146EA9E0601D5BDE80189A5
:1019A000B619524141EB0101A3F10103BDE80189E0
:1019B0004FEA14454FEA114724EA054621EA074C4D
:1019C00005FB07F406FB07F70CFB06F105FB0CFC17
:1019D00011EB074144EB17444FEA124711EB0C415E
:1019E00044EB1C4422EA074C05FB07F206FB07F711
:1019F0000CFB06F605FB0CFC16EB074642EB174208
:101A000016EB0C4642EB1C456A1854F1000148BF26
:101A10007047B619524141EB0101A3F10103704730
:101A200095F0000F37D04FEA11424FEA144721EAF0
:101A3000024624EA074C02FB07F106FB07F70CFB02
:101A400006F402FB0CFC14EB074441EB17414FEA90
:101A5000154714EB0C4441EB1C4125EA074C02FBF3
:101A600007F506FB07F70CFB06F602FB0CFC16EB72
:101A7000074645EB174516EB0C4645EB1C42121981
:101A800051F1000148BF7047B619524141EB0101C5
:101A9000A3F1010370474FEA14454FEA114724EAC6
:101AA000054621EA074C05FB07F106FB07F70CFB8F
:101AB00006F24FF0000605FB0CFC12EB074241EB6F
:101AC000174112EB0C4251EB1C4148BF7047921872
:101AD00041EB0101A3F10103704700BFFEE770472E
:101AE00010B5052000F02EF8014800F082F810BD76
:101AF00000A0004000BFFEE700BFFEE77047704750
:101B00007047704710B5002000F01CF8014800F045
:101B100006FA10BD3401010000BFFEE7490050EA9B
:101B2000C12018BF04204A0D18BF40F0010040F248
:101B3000FF72B2EB515F08BF40F00200012808BFFE
:101B400005207047002807DB00F01F0201219140AB
:101B5000024A430942F823107047000080E200E087
:101B600030380A2801D2012070470020704710B594
:101B7000034619601868904204D100204FF0804459
:101B8000206010BD01208407206080074068401C51
:101B900020600120F5E770B504460D462888002135
:101BA0002269012383409A4301FA00F31A43226118
:101BB00000BF2888216A012282409143216200BF30
:101BC0002988204600F00DF870BD70B505460C461A
:101BD0002146284600F0BFF82188284600F001F889
:101BE00070BD426A01238B401A4342620022426266
:101BF000704770B5054600BFE86A296A084084B29C
:101C000004F0010030B1284600F0C6FA0021284651
:101C1000FFF7E7FF04F0020030B1284600F0C3FAF6
:101C200001212846FFF7DDFF04F0040030B128460B
:101C300000F0BAFA02212846FFF7D3FF04F00800AB
:101C400030B1284600F0B2FA03212846FFF7C9FF59
:101C500004F0100030B1284600F0AEFA0421284606
:101C6000FFF7BFFF04F0200030B1284600F0A5FACE
:101C700005212846FFF7B5FF04F0400030B12846A3
:101C800000F09CFA06212846FFF7ABFF04F0800025
:101C900030B1284600F093FA07212846FFF7A1FF4C
:101CA00004F4807030B1284600F08AFA08212846F2
:101CB000FFF797FF04F4007030B1284600F081FA76
:101CC00009212846FFF78DFF04F4806030B12846D3
:101CD00000F063FA0A212846FFF783FF04F400604E
:101CE00030B1284600F05AFA0B212846FFF779FF59
:101CF00004F4805030B1284600F051FA0C212846F7
:101D0000FFF76FFF04F4005030B1284600F048FAA6
:101D10000D212846FFF765FF04F4804030B12846C6
:101D200000F03FFA0E212846FFF75BFF04F4004065
:101D300030B1284600F036FA0F212846FFF751FF50
:101D400070BD10B5036901248C40A34302FA01F46D
:101D50002343036110BD10B50A7853004FF0FF32E2
:101D60009A400B88012404EB4303C3F11F044FF096
:101D7000FF33E3401A40036823EA02028B780C78B1
:101D80006400A3401A43026042680C780123A34018
:101D90009A43CB78A3401A434260C2680C7801236F
:101DA000A3409A430B79A3401A43C2600A785300B8
:101DB0004FF0FF329A400B88012404EB4303C3F138
:101DC0001F044FF0FF33E3401A40836923EA020205
:101DD0004B790C786400A3401A4382610A7853005F
:101DE0004FF0FF329A400B88012404EB4303C3F108
:101DF0001F044FF0FF33E3401A40C36923EA020295
:101E00008B790C786400A3401A43C26110BD4FF473
:101E1000E13141600F220272002242728272C2726C
:101E2000027342730122827370472DE9F041044628
:101E30000D4616462BE0204600F06DF887B2C02113
:101E4000204600F059F807F0400008B10120207446
:101E500007F0800008B102202074207C50B1A07AE5
:101E6000012807D0204600F009F900202870012041
:101E7000BDE8F08104E02068C06928700020F7E721
:101E80002068406900F01F000028F4D1761E002E63
:101E9000D1D10220ECE770B504460020A074E074B4
:101EA000204600F051F90546204600F0E7F82046AC
:101EB00000F01AF800BF2068406820F00100401CC4
:101EC000216848602068406820F00100216848606F
:101ED00000BF00BF2068406820F00200801C21681D
:101EE000486000BF284670BD40F2FF1102681161D2
:101EF0000021026811617047026812690A43036891
:101F00001A61002203681A6170470268D2688A4326
:101F10000368DA607047014608688069704770B5E9
:101F200004462046FFF7F7FF2168C968084085B2DC
:101F300005F4807038B1204600F024FB4FF4807126
:101F40002046FFF7D9FF05F0400090B10120207432
:101F5000A07A012806D0CC212046FFF7D6FF2046E4
:101F600000F08CF8204600F00BFB40212046FFF7E4
:101F7000C3FF05F0800090B102202074A07A0128F0
:101F800006D0CC212046FFF7C0FF204600F076F8AF
:101F9000204600F0F4FA80212046FFF7ADFF05F05F
:101FA000200030B1204600F0E9FA20212046FFF75A
:101FB000A3FF05F0100030B1204600F0E2FA102136
:101FC0002046FFF799FF05F0010030B1204600F0F0
:101FD000DBFA01212046FFF78FFF05F0020030B148
:101FE000204600F0D0FA02212046FFF785FF05F0D9
:101FF0000400F8B1E07C217E884210DA08E0206815
:10200000C06981B2E27C501CE074606920F8121053
:102010002068406900F01F000028F0D103E00C2187
:102020002046FFF772FF204600F0A7FA0421204661
:10203000FFF762FF05F00800F8B1E07C217E8842DE
:1020400010DA08E02068C06981B2E27C501CE074BC
:10205000606920F812102068406900F01F00002815
:10206000F0D103E00C212046FFF74FFF204600F09F
:1020700083FA08212046FFF73FFF70BD002101745D
:102080008174C1740168496841F4807102685160CB
:102090000168496821F480710268516001684968EB
:1020A00041F40071026851600168496821F40071CF
:1020B000026851600168496841F4806102685160BA
:1020C0000168496821F480610268516001684968CB
:1020D00041F40061026851600168496821F40061BF
:1020E0000268516070470FB408B503A800900099CA
:1020F000029800F04BFA0020009001B05DF814FB4C
:1021000070B504460D4616460020A0740BE020680A
:102110004069C0F30420082805D2A17C481CA074A3
:10212000685C21680860A07CB042F0DB00BF2046FC
:10213000FFF7F1FE00F480700028F8D04FF48071B2
:102140002046FFF7D9FE70BD70B50446217A60685D
:1021500048431049B1FBF0F00105207A41EA004103
:10216000607A41EA0031A07A41EAC021E07A41EA8E
:102170004011207B41EA0011607B41EA8000A17B95
:1021800040EA0105216801F108002A462946FFF7C7
:10219000EEFC70BD005A620270477047704770478E
:1021A0007047704770477047704700000121014A2F
:1021B00011707047A000010070477047704770476A
:1021C0007047704710B502242146044800F0FCF81F
:1021D0002146024800F040F910BD0000A4000100B3
:1021E00010B502490248FFF7D6FC10BD900001006F
:1021F00000A0004010B5022003490880012088702B
:102200000248FFF7E2FC10BD9000010000A0004072
:1022100010B5FFF7EFFF00F0ABF805200021002814
:1022200004DB4A07130E254A135406E04A07140E2E
:10223000234A00F00F031B1FD45400BF05200028C1
:1022400009DB00F01F02012191404209920002F1D6
:10225000E022C2F8001100BF00201A4908700122D4
:1022600002211948FFF76DFD00BF164800780028CD
:10227000FBD016A000F06AF90520002817DB00F05B
:102280001F0201219140174A430942F8231000BF61
:1022900000BF00BFBFF34F8F00BF00BF00BF00BF34
:1022A00000BF00BFBFF36F8F00BF00BF00BF00BF04
:1022B000FFF796FF00F044F810BD000000E400E0D6
:1022C00018ED00E0A000010000A000406770696FF9
:1022D000613320696E70757420686967682E0D0A15
:1022E0000000000080E100E010B5FFF783FF00F080
:1022F00031F8012202210B48FFF723FD00BF032024
:102300000849896A012282401140C140C9B20029AE
:10231000F5D005A000F01AF9FFF762FF00F010F801
:1023200010BD000000A000406770696F6133206934
:102330006E70757420686967682E0D0A00000000D1
:1023400010B502490248FFF726FC10BD98000100B5
:1023500000A0004010B503200349088000208870C9
:102360000248FFF732FC10BD9800010000A00040B9
:1023700010B503200849088000208870887107483C
:10238000FFF723FC03200549096A0122824011431B
:10239000024A116200BF10BD9800010000A0004079
:1023A00000F0DAF801E000F001F8FCE710B50224D3
:1023B0002146044800F008F82146024800F04CF895
:1023C00010BD00000000010070B505460E460DA0CE
:1023D000FFF789FE00240EE004EBC40005EBC0000B
:1023E00000F1080204EBC40015F830100CA0FFF750
:1023F0007AFE601CC4B2B442EEDB0BA0FFF773FEA2
:1024000070BD00005B544553545D2053686F7720C6
:1024100074657374206D656E752E2E2E0D0A000086
:102420005B25635D202573005B544553545D20504C
:1024300072657373206B657920746F2065786563AE
:10244000757465206F722027512720746F2065787E
:1024500069742E2E2E0D0A00F8B505460F4641E090
:1024600000200090204A69462048FFF7DEFC06461F
:10247000002E37D19DF800101DA0FFF734FE9DF807
:102480000000512803D11EA0FFF72DFEF8BD002447
:1024900022E004EBC40015F830009DF800108842DB
:1024A00018D104EBC40005EBC00000F108011AA02C
:1024B000FFF719FE04EBC40105EBC1014868804732
:1024C00004EBC40005EBC00000F1080116A0FFF703
:1024D0000AFE03E0601CC4B2BC42DADB00BF16A0F7
:1024E000FFF701FEBCE7000090D0030034010100BB
:1024F000496E7075742025632E2E2E0D0A00000083
:102500005B544553545D205465737420656E647349
:102510002E2E2E0D0A0D0A005B544553545D205398
:10252000746172743A2573005B544553545D2045C1
:102530006E643A2573000000496E707574206572F0
:10254000726F722E2E2E0D0A0000000010B5044688
:102550002046FFF7C8FD10BD10B5054805490860C5
:102560000846FFF754FC0348FFF795FC10BD000038
:1025700000100040340101007047704770477047F9
:1025800070477047704770477047000033B591B08F
:102590000446214601A8129AFDF740FE002808DDF6
:1025A00001A8FDF74DFEC5B22A4601A90348FFF771
:1025B000A7FD01A8FDF744FE13B030BD34010100B2
:1025C00010B500290AD00878002807D005487844BB
:1025D000FEF774FE002801D0002010BD02487844A8
:1025E00010BD00006E0100006601000010B500295A
:1025F0000AD00878002807D005487844FEF75EFE28
:10260000002801D0002010BD0248784410BD000011
:102610005E01000056010000FEF75DBAFEF792BBB6
:10262000000000000000000030313233343536370E
:102630003839414243444546403058003031323306
:102640003435363738396162636465664030780006
:10265000040000080000000000000002000100006B
:10266000103031323334353637383961626364655E
:10267000667870003031323334353637383941427C
:10268000434445465850000002400000000000A0AE
:102690000000000005400000000000C8000000002D
:1026A0000C4000000000409C0000000019400000A9
:1026B0000020BCBE0000000034400000BFC91B8EDB
:1026C00000000004B5400000504BCFD06607E2CFB9
:1026D000010000006C4100003E8251AADFEEA734E9
:1026E00001000000D9420000DCB5A0E23A301F979B
:1026F000FFFFFFFFB4450000FD25A0C8E9A3C14FBF
:10270000FFFFFFFFFF3F000000000080000000000F
:10271000FF3F00000000008000000000682800006B
:10272000000001003401000098000000B8280000FB
:10273000340101009C100000F40000001C000000A7
:1027400043000000F8FFFFFF0C0000000E00000037
:102750000F0000002E0000001001000043000000E8
:10276000F8FFFFFF004040404040404040404141B2
:102770004141414040404040404040404040404056
:1027800040404040400502020202020202020202F0
:1027900002020202022020202020202020202002ED
:1027A000020202020202909090909090101010107D
:1027B0001010101010101010101010101010101019
:1027C00002020202020288888888888808080808AD
:1027D0000808080808080808080808080808080879
:1027E00002020202400000000000000000000000A1
:1027F00000000000000000000000000000000000D9
:1028000000000000000000000000000000000000C8
:1028100000000000000000000000000000000000B8
:1028200000000000000000000000000000000000A8
:102830000000000000000000000000000000000098
:102840000000000000000000000000000000000088
:102850000000000000000000000000000000000078
:102860000000000000000000323223C52100132EBA
:102870005B4750494F5D2074657374206D656E75BC
:102880000D0A32301BAD23480C394D435547011515
:1028900032317BE922A4480B6770696F6132206F87
:1028A00075740B0D233320696E6829EC0A1C1148DE
:0828B00019030A1F744C00001B
:040000050000005D9A
:00000001FF
