:1000000000200100ED0000008100000083000000DE
:10001000850000008700000089000000000000004B
:100020000000000000000000000000008B00000045
:100030008D000000000000008F0000009100000013
:1000400010B5054C237833B9044B13B10448AFF312
:1000500000800123237010BD680001000000000033
:100060008801000008B5034B1BB103490348AFF3F7
:10007000008008BD000000006C0001008801000045
:100080007047FEE7FEE7FEE7FEE770477047704700
:10009000704700004FF48033134A5A605A68520088
:1000A0009A6099685A688818D8604FF08043186140
:1000B000002301E00133DBB20F2BFBD94FF080436B
:1000C0009A60002301E00133DBB20F2BFBD94FF024
:1000D00080435960002301E00133DBB20F2BFBD9D1
:1000E0004FF080431A60FEE7785634120A490B4AF3
:1000F0000B4B9B1A03DD043BC858D050FBDC09496D
:10010000094A00209142BCBF41F8040BFAE7FFF70F
:10011000C1FF00F015F800008C0100000000010094
:10012000680001006800010084000100FEE7FEE7AE
:10013000FEE7FEE7FEE7FEE7FEE7FEE7FEE700BFBD
:1001400008B5074B044613B10021AFF30080054BFF
:100150001868836A03B19847204600F005F800BF8D
:100160000000000084010000FEE700BFF8B500BFFA
:10017000F8BC08BC9E467047F8B500BFF8BC08BC88
:0C0180009E4670470000010000000000D7
:10018C000000000000000000000000000000000063
:10019C000000000000000000000000000000000053
:1001AC000000000000000000000000000000000043
:1001BC000000000000000000000000000000000033
:1001CC000000000000000000000000000000000023
:1001DC000000000000000000000000000000000013
:0801EC00650000004100000065
:04000003000000ED0C
:00000001FF
