:100000000020020025110000390E0000490E0000FA
:100010004B0E00004D0E00004F0E000000000000CF
:10002000000000000000000000000000510E000071
:10003000530E000000000000550E0000570E000097
:10004000590E0000791100007B1100007D110000A5
:100050007F11000081110000831100008511000054
:1000600087110000891100008B1100008D11000024
:100070008F110000911100009311000095110000F4
:1000800097110000991100009B110000750E0000EF
:1000900010B5054C237833B9044B13B10448AFF3C2
:1000A00000800123237010BDAC040200000000009A
:1000B000541C000008B5034B1BB103490348AFF3C0
:1000C000008008BD00000000B0040200541C0000C5
:1000D00001600368934207D04FF08043012018600D
:1000E0005A6802441A60704700204FF0804318603D
:1000F000704738B504464368017A890541EA0361CF
:10010000437A41EA4351827A41EAC241C27A41EAE2
:10011000824100680A460830FFF7DAFF0546227B75
:10012000617B090141EA0221A27B114320680A4652
:100130000C30FFF7CDFF2843C0B238BD38B50446B8
:10014000002545748574FFF7D4FF6574A574226893
:10015000536843F4807353602268536843F48063A8
:1001600053602268536843F40063536023683F225E
:100170009A612268536843F00103536038BD00233D
:10018000437483740268536843F480735360026855
:10019000536843F4806353600268536843F4006318
:1001A000536003683F229A610268536823F0020398
:1001B00053600268136923F480331361704730B4CD
:1001C000002343740468A36823F40023A360046835
:1001D000A36843F48023A3600468236923F0FF032A
:1001E000134323610468236923F47F4343EA022312
:1001F00023610468636843F001036360102A1BD91C
:10020000102504E05C1C44740468CB5C2360437CD0
:10021000AB42F7D30468636843F002036360437C36
:1002200093420BD20468E56915F4805FF7D15D1C39
:100230004574CB5C2360F2E71546E8E703681A6A69
:1002400012F0200FFAD09A6942F020029A610268F7
:10025000536823F0020353600023437430BC70479B
:1002600010B58C469E4600234374837401688B68E6
:1002700023F400238B6001688B6823F480238B6058
:1002800001680B6923F0FF0343EA0E030B61016869
:100290000B6923F47F4343EA0E230B6101680B696A
:1002A00043F480330B6101684B6843F001034B60FA
:1002B000BEF1100F0AD91024437CA34208D2591C66
:1002C000417401681CF803300B60F5E77446F3E7EE
:1002D00001684B6843F002034B6004E00368196A4D
:1002E00011F0100F17D1437C73456BD20168CC69B4
:1002F00014F4805F04D15C1C44741CF803300B6060
:100300000368D96911F01F0FE8D0596A837C5C1C1F
:100310008474D154E2E7196921F40031196101684C
:100320008B6943F010038B6105E0591C417401682F
:100330001CF803300B600368DB6913F4805F06D19F
:10034000417C4FF080435960437C7345EDD1036895
:10035000DB6913F01F0F0CD0817C4FF08043D96014
:10036000837C734505D00168496A5C1C8474D15450
:10037000EDE701680B6943F400330B61B3E71969DA
:1003800021F40031196101688B6943F010038B611E
:1003900006E00168496A03F1010C80F812C0D154EB
:1003A0000368DB6913F01F0F06D0817C4FF0804398
:1003B000D960837C7345ECD101680B6943F4003349
:1003C0000B6107E0837C734518D20368196A11F04A
:1003D000100FD4D10168C96911F01F0FF2D0837CCE
:1003E0004FF08041CB60817C7145EBD003685B6A44
:1003F00001F1010C80F812C05354EBE703681A6A4C
:1004000012F0200FFAD09A6942F020029A61026835
:10041000136923F4803313610268536823F00203E5
:10042000536000234374837410BDF0B50C461F461F
:100430009DF814300021417481740568A96821F485
:100440000021A9600568A96821F48021A9600568D8
:10045000296921F0FF01394329610568296921F4DF
:100460007F4141EA032129610568A96841F48011AF
:10047000A9600568296941F48031296105686968C6
:1004800041F001016960A7EB030E5FFA8EFE102BAD
:1004900014D9102606E00CF101014174016814F82A
:1004A0000C500D6090F811C0B445F4D3056869682C
:1004B00041F0020169609F4240D106E01E46F1E72B
:1004C0000268116A11F0100F12D1427C9A4280F03A
:1004D000CC800168C96911F4805FF1D14FF080418F
:1004E0004A60427C511C41740168A25C0A60E7E7E3
:1004F000116921F40031116101688A6942F010022A
:100500008A610268D26912F4805F0CD1417C4FF09D
:1005100080425160427C9A4205D0511C417401686E
:10052000A25C0A60EDE701680A6942F400320A61E0
:10053000CBE701680D6A15F0100F22D1417C99427A
:1005400077D20568ED6915F4805F08D14FF08045DA
:100550006960417C4D1C45740568615C29600168D7
:10056000C96911F01F0FE4D0857C4FF08041CD6048
:1005700001684D6A817C01F1010C80F812C055546C
:10058000D7E70D6925F400350D610568A96941F0CB
:100590001001A96104E04D1C45740568615C296087
:1005A0000168C96911F4805F06D1457C4FF0804134
:1005B0004D60417C9942EED10168C96911F01F0F6D
:1005C0000ED0857C4FF08041CD60817C714507D095
:1005D00005686D6A01F1010C80F812C05554EBE713
:1005E0000568296941F400312961A7E7196921F4F7
:1005F0000031196101688B6943F010038B6106E0DB
:100600000168496A03F1010C80F812C0D1540368F3
:10061000DB6913F01F0F06D0817C4FF08043D96057
:10062000837C7345ECD101680B6943F400330B61A3
:1006300007E0837C734518D20368196A11F0100F24
:10064000D4D10368DB6913F01F0FF2D0817C4FF027
:100650008043D960837C7345EBD00168496A03F11C
:10066000010C80F812C0D154EBE703681A6A12F04B
:10067000200FFAD09A6942F020029A610268136949
:1006800023F4803313610268536823F0020353603C
:100690000268936823F48013936000234374837487
:1006A000F0BD70477047704770477047704738B566
:1006B000054603681C6A5A69D2B214409C6114F062
:1006C000200F0FD114F0100F0FD114F0010F10D123
:1006D00014F0020F11D114F0040F12D114F0080F0E
:1006E00013D138BDFFF7DDFFECE72846FFF7DAFF4F
:1006F000EBE72846FFF7D8FFEAE72846FFF7D3FFE6
:10070000E9E72846FFF7D2FFE8E72846FFF7CDFFE5
:10071000E7E74FF4E13343600F2303720023437292
:100720008372C372037343730123837370470000A2
:1007300008B54168037A03FB01F20E49B1FBF2F2FE
:10074000190441EA0251437A41EA0331837A41EACA
:10075000C321C37A41EA4311037B41EA0311427B7F
:1007600041EA8201827B114300680A460830FFF7A4
:10077000AFFC08BD005A620238B5044600258574F6
:10078000C574FFF7D5FF2574A574E5742268536816
:1007900043F4807353602268536823F4807353607A
:1007A0002268536843F4007353602268536823F44B
:1007B000007353602268536843F480635360226877
:1007C000536823F4806353602268536843F40063E2
:1007D00053602268536823F400635360236840F237
:1007E000FF121A6123681D612268536843F00103F8
:1007F00053602268536823F00103536022685368F2
:1008000043F00203536038BD10B40023837490F8A2
:1008100012C094450CD2046863691B0A13F0180FC8
:10082000F5D10CF10103837411F80C302360EEE76D
:1008300003689A6912F4807FFAD01A6942F48072D0
:100840001A61036800221A6110BC7047002A59D04F
:1008500030B40BE0DB690B70002051E003685C6989
:1008600014F01F0FF6D1013A002A48D003689D69A1
:100870001C6944F0C0041C61036800241C61ABB215
:1008800015F0400F01D00124047413F0800F01D043
:1008900002230374037C002BE0D0837A012BDDD08C
:1008A000002303748374C3740468626842F4807222
:1008B00062600468626822F4807262600468626840
:1008C00042F4007262600468626822F4007262603E
:1008D0000468626842F4806262600468626822F4BC
:1008E000806262600468626842F40062626000686C
:1008F000426822F4006242600B70012000E0022096
:1009000030BC70470220704770477047704770478F
:100910007047704770477047704738B504460368A2
:100920009D69DB689BB21D4015F4807F44D115F0B2
:10093000400F0FD001232374A37A012B47D1204607
:10094000FFF7E3FF2268136943F040031361236854
:1009500000221A6115F0800F0FD002232374A37AAE
:10096000012B66D12046FFF7D1FF2268136943F0BF
:1009700080031361236800221A6115F0200F40F0F4
:100980008A8015F0100F40F0928015F0010F40F0B2
:100990009A8015F0020F40F0A28015F0040F00F0CD
:1009A000C180E27C237E9A42C0F0AC802268D3688A
:1009B00023F00C03D360AAE0FFF7A6FF22681369B7
:1009C00043F480731361236800221A61AFE7226841
:1009D000D36823F0CC03D36000232374A374E3749F
:1009E0002268536843F4807353602268536823F489
:1009F000807353602268536843F400735360226825
:100A0000536823F4007353602268536843F480638F
:100A100053602268536823F48063536022685368EC
:100A200043F4006353602268536823F40063536007
:100A300085E72268D36823F0CC03D36000232374B6
:100A4000A374E3742268536843F48073536022688C
:100A5000536823F4807353602268536843F400732F
:100A600053602268536823F400735360226853680C
:100A700043F4806353602268536823F480635360B7
:100A80002268536843F4006353602268536823F478
:100A90000063536066E72046FFF739FF2268136959
:100AA00043F020031361236800221A6169E720469E
:100AB000FFF72EFF2268136943F0100313612368C8
:100AC00000221A6161E72046FFF724FF22681369BC
:100AD00043F001031361236800221A6159E720469D
:100AE000FFF717FF2268136943F0020313612368BD
:100AF00000221A6151E7D9696269E37C581CE074ED
:100B000022F8131023685A6912F01F0FF3D1204600
:100B1000FFF702FF2268136943F00403136123689F
:100B200000221A6115F0080F20D0E27C237E9A4241
:100B30000CD32268D36823F00C03D3600BE0D9698F
:100B40006269E37C581CE07422F8131023685A6928
:100B500012F01F0FF3D12046FFF7DDFE2268136964
:100B600043F008031361236800221A6138BD0000B6
:100B700000B5A1B00A460146684600F069FB0028AE
:100B800005DC684600F046FB21B05DF804FB6846D2
:100B900000F040FBC2B269460148FFF735FEF0E7BE
:100BA000640502000FB400B583B004A951F8040B2A
:100BB0000191FFF7DDFF03B05DF804EB04B070476F
:100BC00010B50C4C0C4B236000232372282262606A
:100BD000022222736273A3732046FFF7AFFA2368E1
:100BE0001A6942F480221A611A6942F400221A61D9
:100BF00010BD00BFC80402000020024008B5024832
:100C0000FFF7BDFA08BD00BFC804020030B585B0CB
:100C10000546002402948DF80C4000948DF80440A1
:100C20009F238DF8083005236A4602A90A48FFF77A
:100C300017FB09E004F110036B4413F8101C07487C
:100C400000F0C2FA0134E4B2042CF3D9DDF801302B
:100C50002B6005B030BD00BFC8040200341B00008B
:100C600000B583B00023ADF80430ADF800300523A3
:100C70008DF8043002236A4601A90648FFF7F0FA0E
:100C80009DF80110044800F09FFA9DF8010003B0A0
:100C90005DF804FBC8040200341B000000B583B0FB
:100CA00000238DF8043006238DF80430012201A9B9
:100CB0000548FFF784FAFFF7D3FF10F0020FFAD0D0
:100CC00003B05DF804FB00BFC804020030B583B078
:100CD00004460D46002300938DF80430032A28D8DB
:100CE000DFE802F0021B1F2320238DF80030FFF7FE
:100CF000D5FF15BBE3B28DF803308DF802308DF8C7
:100D00000130042269461448FFF759FAFFF7A8FF9B
:100D100010F0010FFAD103B030BD52238DF800302E
:100D2000E5E7D8238DF80030E1E760238DF8003047
:100D3000DDE720238DF80030D9E7E3B28DF80430E9
:100D40008DF803308DF802308DF8013005226946A8
:100D50000148FFF734FAD9E7C804020010B584B09F
:100D6000002402948DF80C4003248DF8084081B9CA
:100D70000433C0B28DF80B008DF80A008DF809001D
:100D800004210091DBB202A90B48FFF74EFB04B02F
:100D900010BD0533C0B28DF80C008DF80B008DF836
:100DA0000A008DF8090005210091DBB202A9024872
:100DB000FFF73BFBEBE700BFC8040200F0B591B0C2
:100DC00005460F4616461C46FFF768FF02238DF8BE
:100DD0000030C7B92246314601A800F00DFA221DA5
:100DE000EBB28DF803308DF802308DF80130D2B2BD
:100DF00069461048FFF7E3F9FFF732FF10F0010FE3
:100E0000FAD111B0F0BD224631460DF1050000F0D7
:100E1000F3F9621DEBB28DF804308DF803308DF8D4
:100E200002308DF80130D2B269460248FFF7C7F9A7
:100E3000E2E700BFC804020008B5024800F0C0F9AC
:100E400008BD00BF381B0000FEE7FEE7FEE7FEE737
:100E5000704770477047704708B5044B0122C3F8CC
:100E600080210348FFF759FD08BD00BF00E100E005
:100E70006405020008B5044B4FF40022C3F880213A
:100E80000248FFF714FC08BD00E100E0C8040200BE
:100E900070B505460E460B48FFF784FE00240BE0B4
:100EA00004EB041305EBC302083215F833100648AF
:100EB000FFF778FE0134E4B2B442F1D30348FFF700
:100EC00071FE70BD3C1B0000581B0000601B000041
:100ED0002DE9F04182B005460E461DE00134E4B232
:100EE000B44216D204EB041305EBC30715F8332004
:100EF0009DF807309A42F1D107F10808414614489D
:100F0000FFF750FE7B68984741461248FFF74AFEBC
:100F1000E4E71148FFF746FE00238DF807300F4A3B
:100F20000DF107010E48FFF791FC04460028F3D1AC
:100F30009DF807100B48FFF735FE9DF80730512B41
:100F4000CED10948FFF72EFE02B0BDE8F08100BF08
:100F5000B81B0000C81B0000D81B000090D0030085
:100F600064050200901B0000A01B000010B5054C9A
:100F700001212046FFF78CFF01212046FFF7A8FF43
:100F800010BD00BF0000020008B500F009F90348D9
:100F900000F016F9FFF7EAFFFCE700BFEC1B0000CA
:100FA00008B5002211461046FFF790FE08BD08B5AF
:100FB000FFF774FE08BD08B5FFF752FE08BD00003C
:100FC000002303E0034AD3540133DBB23F2BF9D9AA
:100FD000704700BF2405020008B5FFF7F1FF20238A
:100FE000024A00210846FFF7E9FE08BD2405020079
:100FF000002304E0034A0021D1540133DBB23F2B2C
:10100000F8D97047E404020010B5FFF7F1FF094872
:10101000FFF7FCFD002406E0064B195D064800F0D2
:10102000D3F80134E4B2032CF6D9044800F0C8F830
:1010300010BD00BFE4040200341B00000C1C0000C3
:1010400010B5FFF7D5FF2023094A00210846FFF716
:1010500085FE084800F0B4F8002406E0044B195D52
:10106000054800F0B1F80134E4B21F2CF6D910BDE8
:10107000E4040200101C0000341B000010B5FFF750
:101080009FFFFFF7B5FF002211461046FFF71EFE37
:101090001023174A00210846FFF760FE154800F0AC
:1010A0008FF8002406E0124B195D134800F08CF80D
:1010B0000134E4B20F2CF6D91023104A002108465F
:1010C000FFF77CFE10230A4A00210846FFF746FE80
:1010D000084800F075F8002406E0054B195D064845
:1010E00000F072F80134E4B20F2CF6D910BD00BF45
:1010F000E4040200101C0000341B00002405020060
:1011000010B5FFF75DFD064C07212046FFF7C0FE36
:1011100007212046FFF7DCFEFFF770FD10BD00BF82
:10112000880002000A490B4A0B4B9B1A03DD043B63
:10113000C858D050FBDC0949094A00209142BCBF85
:1011400041F8040BFAE7FFF71FFF00F041F8000039
:10115000581C000000000200AC040200AC040200B5
:1011600094050200FEE7FEE7FEE7FEE7FEE7FEE786
:10117000FEE7FEE7FEE7FEE7FEE7FEE7FEE7FEE747
:10118000FEE7FEE7FEE7FEE7FEE7FEE7FEE7FEE737
:10119000FEE7FEE7FEE7FEE7FEE7FEE7FEE700BF4D
:1011A00010B5054C054B23602046FFF7B2FA2046E8
:1011B000FFF7E2FA10BD00BF640502000010004016
:1011C00008B5FFF7EFFC08BD08B5FFF7EBFC08BD5D
:1011D00008B5074B044613B10021AFF30080054B5F
:1011E0001868836A03B19847204600F095FC00BF59
:1011F000000000001C1C00000A44914200F1FF3373
:1012000000D1704710B511F8014B914203F8014F1E
:10121000F9D110BD034613F8012B002AFBD1181A8F
:101220000138704700B59BB0009104916FF0004108
:101230000591029105490391694600F06FF800227B
:10124000009B1A701BB05DF804FB00BF0802FFFF93
:1012500013460A46014602480068FFF7E3BF00BF95
:10126000400402002DE9F0478E6882469E420C46FB
:1012700090461F4638D88A8912F4906F32D025687C
:1012800009690133A5EB010965694B4405EB450587
:1012900005EBD5756D109D4238BF1D46530531D500
:1012A000294600F061FB064650B90C234FF0FF3091
:1012B000CAF80030A38943F04003A381BDE8F0875A
:1012C0004A462169FFF798FFA38923F4906343F00E
:1012D0008003A38126614E4426603E466561A5EBEE
:1012E0000905A560BE4200D93E4632464146206807
:1012F00000F0B8FAA36800209B1BA3602368334466
:101300002360DBE72A4600F0A3FB06460028E1D174
:101310005046216900F0C0FAC7E700002DE9F04F00
:1013200098468B8907461B060D4614469DB00ED580
:101330000B6963B9402100F017FB2860286120B9D0
:101340000C233B604FF0FF30D1E040236B61002362
:10135000099320238DF8293030234FF00109CDF86F
:101360000C80DFF8A4818DF82A3023469A4613F8C2
:10137000012B0AB1252AF9D1BAEB040B0BD05B463D
:10138000224629463846FFF76DFF013000F0AA805B
:10139000099A5A4409929AF80030002B00F0A28072
:1013A00000234FF0FF32CDE905230AF1010A04932F
:1013B00007938DF853301A935446052214F8011BF5
:1013C000514800F041FA049AD8B9D00644BF20230E
:1013D0008DF85330110744BF2B238DF853309AF802
:1013E00000302A2B15D0544600204FF00A0C079AE3
:1013F000214611F8013B303B092B4ED9B0B1079281
:1014000014E0A0EB080309FA03F31343A246049384
:10141000D2E7039B191D1B680391002BBBBF5B42E6
:1014200042F0020207930793B8BF049223782E2B51
:101430000CD163782A2B35D1039B02341A1D1B680B
:101440000392002BB8BF4FF0FF330593DFF8BCA029
:1014500003225046217800F0F7F940B14023A0EB79
:101460000A0003FA00F0049B01340343049314F8C8
:10147000011B062226488DF8281000F0E5F9002807
:1014800038D0244B1BBB039B073323F007030833DF
:101490000393099B3344099367E70C4601200CFB37
:1014A0000232A5E700234FF00A0C194601340593D8
:1014B000204610F8012B303A092A03D9002BC5D059
:1014C0000591C3E7044601230CFB0121F0E703ABC0
:1014D00000932A463846104B04A9AFF30080421C03
:1014E0000646D6D1AB895B063FF52CAF09981DB0F7
:1014F000BDE8F08F03AB00932A463846064B04A99B
:1015000000F07CF8EBE700BF201C0000261C000068
:101510002A1C000000000000651200002DE9F047C1
:10152000164699468A680B6907469342B8BF134628
:10153000336091F843200C46DDF820800AB1013376
:1015400033602368990642BF3368023333602568ED
:1015500015F0060506D104F1190AE36832689B1AF2
:10156000AB4228DC94F84320131E226818BF0123E5
:1015700092062DD44946384604F14302C047013053
:1015800020D02368E56803F00603042B18BF00256C
:1015900032684FF00006A36808BFAD1A226908BF81
:1015A00025EAE5759342C4BF9B1AED181A34B5427B
:1015B0001AD1002008E00123524649463846C04768
:1015C000013003D14FF0FF30BDE8F0870135C4E7AB
:1015D0003020E11881F843005A1C94F84510224449
:1015E000023382F84310C5E70123224649463846B4
:1015F000C0470130E6D00136D9E700002DE9FF47AA
:101600000F7E9146782F80460C469A460C9D01F13C
:10161000430207D8622F0AD8002F00F0D980582F34
:1016200000F0A48004F1420584F842703AE0A7F18A
:101630006303152BF6D801A151F823F0951600008D
:10164000A91600002516000025160000251600002A
:1016500025160000A916000025160000251600001A
:101660002516000025160000B7170000D916000047
:10167000991700002516000025160000D917000054
:1016800025160000D91600002516000025160000BA
:10169000A11700002B681A1D1B682A6004F142057F
:1016A00084F842300123A4E020682968060601F18D
:1016B00004030AD50E682B60002E03DA2D23764230
:1016C00084F843300A235E4819E00E6810F0400F9A
:1016D0002B6018BF36B2EFE72B682068191D296010
:1016E000010601D51E6802E04606FBD51E886F2F55
:1016F0000CBF08230A235248002184F84310656870
:10170000002DA8BF2168A560A4BF21F004012160BD
:101710000EB9002D4DD01546B6FBF3F103FB116752
:10172000C75D05F8017D3746BB420E46F4D9082B4C
:101730000BD12368DE0708D5236961689942DEBFB3
:10174000302305F8013C05F1FF35521B22614B4661
:1017500021464046CDF800A003AAFFF7DFFE013086
:101760004CD14FF0FF3004B0BDE8F087344881F829
:1017700045702968236851F8046B29601D0614D54B
:10178000DF0744BF43F0200323601EB9236823F022
:10179000200323601023AFE7236843F02003236076
:1017A0007823284884F84530E3E7590648BFB6B2A5
:1017B000E6E71546BBE72B682668181D61692860B7
:1017C00035061B6801D5196002E07006FBD519804B
:1017D000002315462361BAE72B6800211A1D2A60F1
:1017E0001D686268284600F02FF808B1401B606051
:1017F00063682361002384F84330A8E72A464946FA
:1018000040462369D0470130ABD023689B0713D4EF
:10181000E068039B9842B8BF1846A4E7012332460C
:1018200049464046D04701309BD00135E3680399D3
:101830005B1AAB42F2DCEBE7002504F11906F5E791
:10184000311C0000421C0000034610B5C9B202441E
:101850009342184601D1002003E0047801338C4202
:10186000F6D110BD884210B501EB020402D98442C2
:10187000234607D8431EA14208D011F8012B03F8D4
:10188000012FF8E7014602448A4200D110BD13F847
:10189000014D02F8014DF7E738B50546002940D063
:1018A00051F8043C0C1F002BB8BFE41800F010F9ED
:1018B0001C4A136833B9636014602846BDE8384099
:1018C00000F00CB9A34208D9206821188B4201BF4F
:1018D00019685B6809182160EDE71A465B680BB16F
:1018E000A342FAD911685018A0420BD120680144D4
:1018F000501883421160E0D118685B6801441160A0
:101900005360DAE702D90C232B60D6E72068211850
:101910008B4201BF19685B680918216063605460DD
:10192000CBE738BD8005020070B50E4E0C4631681D
:10193000054611B900F0BCF830602146284600F099
:10194000B7F8431C0AD0C41C24F00304A04207D0FB
:10195000211A284600F0ACF8013001D14FF0FF34D5
:10196000204670BD840502002DE9F041CD1C25F014
:10197000030508350C2D38BF0C25002D074601DB6B
:10198000A94205D90C2300263B603046BDE8F08112
:101990002E4E00F09DF833681C4634BB294638466D
:1019A000FFF7C2FF431C04464DD134682646002E83
:1019B00040D123683146384604EB030800F078F83C
:1019C00080453AD1216803356D1A25F003050835A5
:1019D0000C2D38BF0C2538462946FFF7A5FF0130EE
:1019E0002BD023682B4423600EE02268521B1ED4A8
:1019F0000B2A16D96119A342256018BF5960636884
:101A000008BF316062514B60384604F10B0600F0AC
:101A100065F826F00706231DF21AB6D09B1BA350CB
:101A2000B3E76268A3420CBF32605A60ECE723461A
:101A30006468B2E734467668B9E70C2338463B6001
:101A400000F04CF8A1E72560DEE700BF800502004A
:101A50002DE9F041804614460E4621B91146BDE8F5
:101A6000F041FFF781BF2AB9FFF716FF2546284648
:101A7000BDE8F08100F038F88442074602D8B4EBA4
:101A8000500F12D821464046FFF76EFF054600284A
:101A9000EDD0BC422246314628BF3A46FFF7ACFBA8
:101AA00031464046FFF7F8FEE1E73546DFE7000044
:101AB00038B50023054D044608462B6000F01EF89B
:101AC000431C02D12B6803B1236038BD8805020096
:101AD000014800F011B800BF8C050200014800F079
:101AE0000CB800BF8C05020051F8043C181F002BF5
:101AF000BCBF0B58C018704770477047044A05496F
:101B00001368002B08BF0B46184410601846704736
:101B10009005020098050200FEE700BFF8B500BF7F
:101B2000F8BC08BC9E467047F8B500BFF8BC08BCBE
:101B30009E467047257820004E4D49005B54455322
:101B4000545D2053686F772074657374206D656EE3
:101B5000752E2E2E0D0A00005B25635D2025730077
:101B60005B544553545D205072657373206B6579E7
:101B700020746F2065786563757465206F72202707
:101B8000512720746F20657869742E2E2E0D0A005F
:101B9000496E7075742025632E2E2E0D0A000000EC
:101BA0005B544553545D205465737420656E6473B3
:101BB0002E2E2E0D0A0D0A005B544553545D205302
:101BC000746172743A2573005B544553545D20452B
:101BD0006E643A2573000000496E7075742065725A
:101BE000726F722E2E2E0D0A0000000053504920F5
:101BF0006D6173746572206170706C696361746982
:101C00006F6E732E2E2E0D0A000000000D0A2000AC
:101C10000D0A20726561643A20000000440402004D
:101C2000232D302B2000686C4C00656667454647C5
:101C30000030313233343536373839414243444548
:101C400046003031323334353637383961626364B7
:081C50006566000000000000C1
:101C580031000000011100005B474432356C6232EC
:101C68003536655D20474432356C6232353665203D
:101C780073706920666C6173682063617365732E85
:101C88002E2E0D0A000000000000000000000000D9
:101C9800000000000000000000000000000000003C
:101CA800000000000000000000000000000000002C
:101CB800000000000000000000000000000000001C
:101CC800000000000000000000000000000000000C
:101CD80000000000000000003100000009100000B2
:101CE8005B474432354C42323536455D20474432F5
:101CF800354C42323536452072656164206964206E
:101D0800636173650D0A0000000000000000000018
:101D180000000000000000000000000000000000BB
:101D280000000000000000000000000000000000AB
:101D3800000000000000000000000000000000009B
:101D4800000000000000000000000000000000008B
:101D5800000000000000000000000000000000007B
:101D680032000000411000005B474432354C4232DB
:101D78003536455D20474432354C423235364520AC
:101D88007265616420636173650D0A0000000000DC
:101D9800000000000000000000000000000000003B
:101DA800000000000000000000000000000000002B
:101DB800000000000000000000000000000000001B
:101DC800000000000000000000000000000000000B
:101DD80000000000000000000000000000000000FB
:101DE800000000000000000033000000A10F000008
:101DF8005B474432354C42323536455D20474432E4
:101E0800354C423235364520657261736520636111
:101E180073650D0A000000000000000000000000CB
:101E280000000000000000000000000000000000AA
:101E3800000000000000000000000000000000009A
:101E4800000000000000000000000000000000008A
:101E5800000000000000000000000000000000007A
:101E6800000000000000000000000000000000006A
:101E780034000000D90F00005B474432354C423231
:101E88003536455D20474432354C4232353645209B
:101E980070726F6772616D20636173650D0A00006F
:101EA800000000000000000000000000000000002A
:101EB800000000000000000000000000000000001A
:101EC800000000000000000000000000000000000A
:101ED80000000000000000000000000000000000FA
:101EE80000000000000000000000000000000000EA
:101EF8000000000000000000350000007D10000018
:101F08005B474432354C42323536455D20474432D2
:101F1800354C4232353645206F7065726174696F91
:101F28006E7320636173650D0A00000000000000F5
:101F38000000000000000000000000000000000099
:101F48000000000000000000000000000000000089
:101F58000000000000000000000000000000000079
:101F68000000000000000000000000000000000069
:101F78000000000000000000000000000000000059
:101F880036000000AF0F00005B474432354C423248
:101F98003536455D20474432354C4232353645208A
:101FA800777269746520656E61626C650D0A000060
:101FB8000000000000000000000000000000000019
:101FC8000000000000000000000000000000000009
:101FD80000000000000000000000000000000000F9
:101FE80000000000000000000000000000000000E9
:101FF80000000000000000000000000000000000D9
:10200800000000000000000037000000B70F0000CB
:102018005B474432354C42323536455D20474432C1
:10202800354C4232353645207374617475730D0A28
:102038000000000000000000000000000000000098
:102048000000000000000000000000000000000088
:102058000000000000000000000000000000000078
:102068000000000000000000000000000000000068
:102078000000000000000000000000000000000058
:102088000000000000000000000000000000000048
:1020980044040200000000000000000000000000EE
:1020A8000000000000000000000000000000000028
:1020B8000000000000000000000000000000000018
:1020C8000000000000000000000000000000000008
:1020D80000000000000000000000000000000000F8
:1020E80000000000000000000000000000000000E8
:0C20F80000000000B50000009100000096
:0400000300001125C3
:00000001FF
