:1000000000200100E50900002F090000310900006F
:100010003309000035090000370900000000000026
:10002000000000000000000000000000390900008E
:100030003B090000000000003D0900003F090000EE
:1000400041090000390A00003B0A00003D0A000097
:100050003F0A0000410A0000430A0000450A000070
:100060005D0900007909000095090000B109000050
:100070004F0A000010B5054C237833B9044B13B177
:100080000448AFF300800123237010BD6800010015
:1000900000000000DC0A000008B5034B1BB1034957
:1000A0000348AFF3008008BD000000006C000100B1
:1000B000DC0A000008B5074900230B7001234B70D0
:1000C00014234B808B800A23CB80034800F0BFF9B8
:1000D00008BD00BF840001000000014008B50749C9
:1000E00001230B704B7014234B800A238B80002359
:1000F000CB80034800F0ABF908BD00BF8C000100C5
:100100000000014008B5074902230B7001234B7022
:100110000A234B8014238B800023CB80024800F0FD
:1001200096F908BD940001000000014008B5074998
:1001300003230B7001234B700F234B808B80002314
:10014000CB80034800F083F908BD00BF9C0001008C
:100150000000014008B50249024800F0B9F908BDA5
:10016000840001000000014008B50249024800F087
:10017000AFF908BD8C0001000000014008B502493C
:10018000024800F0A5F908BD9400010000000140FC
:1001900008B50249024800F09BF908BD9C00010027
:1001A0000000014008B5FFF785FFFFF797FFFFF755
:1001B000A9FFFFF7BBFF484B1A6C42F001021A641B
:1001C0001A6C42F002021A641A6C42F004021A64B9
:1001D0001A6C42F008021A644049002281F8082390
:1001E0004FF48070086081F809234FF400700860B4
:1001F00081F80A234FF48060086081F80B234FF4E4
:1002000000600860196821F002011960196841F066
:1002100002011960196921F002011961196941F09F
:1002200002011961196A21F002011962196A41F08B
:1002300002011962196B21F002011963196B41F077
:1002400002011963264B1A70264B1A70264B1A703E
:10025000264B1A70224B1B78DBB2022BFAD9214BAA
:100260001B78DBB2022BF5D91F4B1B78DBB2022BBC
:10027000F0D91E4B1B78DBB2022BEBD91C4800F0E7
:10028000F7FB164B4FF48072C3F88020BFF34F8FFB
:10029000BFF36F8F4FF40072C3F88020BFF34F8F0E
:1002A000BFF36F8F4FF48062C3F88020BFF34F8F8E
:1002B000BFF36F8F4FF40062C3F88020BFF34F8FFE
:1002C000BFF36F8FFFF746FFFFF74EFFFFF756FFB5
:1002D000FFF75EFF08BD00BF0000014000E100E045
:1002E000A4000100A5000100A6000100A700010074
:1002F000B80A0000024A13780133DBB2137070476A
:10030000A4000100024A13780133DBB21370704776
:10031000A5000100024A13780133DBB21370704765
:10032000A6000100024A13780133DBB21370704754
:10033000A700010070B506460D460B78032B6DD85B
:10034000DFE803F0021B3651497889000A4600F0C5
:100350002FF90446AA88698841EA02410A46301DFD
:1003600000F026F90443E4B2E9880A4606F10800E1
:1003700000F01EF92043C0B270BD497889000A46DA
:10038000103000F015F90446AA88698841EA024154
:100390000A4606F1140000F00BF90443E4B2E988C0
:1003A0000A4606F1180000F003F92043C0B2E3E763
:1003B000497889000A46203000F0FAF80446AA88F5
:1003C000698841EA02410A4606F1240000F0F0F88B
:1003D0000443E4B2E9880A4606F1280000F0E8F890
:1003E0002043C0B2C8E7497889000A46303000F09F
:1003F000DFF80446AA88698841EA02410A4606F104
:10040000340000F0D5F80443E4B2E9880A4606F166
:10041000380000F0CDF82043C0B2ADE7497889003C
:100420000A4600F0C5F80446AB88698841EA0341F2
:100430000A46301D00F0BCF80443E4B2E9880A46DD
:1004400006F1080000F0B4F82043C0B294E738B5D4
:1004500004460D46FFF76EFF2B78032B2FD8DFE8FD
:1004600003F002131C25236843F001032360236873
:1004700023F0010323602978636C01228A4013432F
:1004800063640023636438BD236943F0010323617F
:10049000236923F001032361EDE7236A43F001039D
:1004A0002362236A23F001032362E4E7236B43F012
:1004B00001032363236B23F001032363DBE723683A
:1004C00043F001032360236823F001032360D2E794
:1004D0000B78032B1FD8DFE803F0020F1419036811
:1004E00023F0020303600978436C01228A4013431E
:1004F0004364002343647047036923F002030361EC
:10050000F1E7036A23F002030362ECE7036B23F0D5
:1005100002030363E7E7036823F002030360E2E7F3
:10052000836C026C134013F0010F00D1704710B5BB
:100530000446FFF7DFFE636C43F0010363640023AE
:10054000636410BD836C026C134013F0020F00D182
:10055000704710B50446FFF7D5FE636C43F0020305
:1005600063640023636410BD836C026C134013F05A
:10057000040F00D1704710B50446FFF7CBFE636C43
:1005800043F0040363640023636410BD836C026C56
:10059000134013F0080F00D1704710B50446FFF761
:1005A000C1FE636C43F0080363640023636410BD01
:1005B00001600368934207D04FF080430120186028
:1005C0005A6802441A60704700204FF08043186058
:1005D00070474FF4E13343600F23037200234372EB
:1005E0008372C372037343730123837370470000E4
:1005F00008B54168037A03FB01F20E49B1FBF2F240
:10060000190441EA0251437A41EA0331837A41EA0B
:10061000C321C37A41EA4311037B41EA0311427BC0
:1006200041EA8201827B114300680A460830FFF7E5
:10063000BFFF08BD005A620238B504460025857424
:10064000C574FFF7D5FF2574A574E5742268536857
:1006500043F4807353602268536823F480735360BB
:100660002268536843F4007353602268536823F48C
:10067000007353602268536843F4806353602268B8
:10068000536823F4806353602268536843F4006323
:1006900053602268536823F400635360236840F278
:1006A000FF121A6123681D612268536843F0010339
:1006B00053602268536823F0010353602268536833
:1006C00043F00203536038BD70477047704770476E
:1006D0007047704770477047704738B504460368E5
:1006E0009D69DB689BB21D4015F4807F44D115F0F5
:1006F000400F0FD001232374A37A012B47D120464A
:10070000FFF7E3FF2268136943F040031361236896
:1007100000221A6115F0800F0FD002232374A37AF0
:10072000012B66D12046FFF7D1FF2268136943F001
:1007300080031361236800221A6115F0200F40F036
:100740008A8015F0100F40F0928015F0010F40F0F4
:100750009A8015F0020F40F0A28015F0040F00F00F
:10076000C180E27C237E9A42C0F0AC802268D368CC
:1007700023F00C03D360AAE0FFF7A6FF22681369F9
:1007800043F480731361236800221A61AFE7226883
:10079000D36823F0CC03D36000232374A374E374E1
:1007A0002268536843F4807353602268536823F4CB
:1007B000807353602268536843F400735360226867
:1007C000536823F4007353602268536843F48063D2
:1007D00053602268536823F480635360226853682F
:1007E00043F4006353602268536823F4006353604A
:1007F00085E72268D36823F0CC03D36000232374F9
:10080000A374E3742268536843F4807353602268CE
:10081000536823F4807353602268536843F4007371
:1008200053602268536823F400735360226853684E
:1008300043F4806353602268536823F480635360F9
:100840002268536843F4006353602268536823F4BA
:100850000063536066E72046FFF739FF226813699B
:1008600043F020031361236800221A6169E72046E0
:10087000FFF72EFF2268136943F01003136123680A
:1008800000221A6161E72046FFF724FF22681369FE
:1008900043F001031361236800221A6159E72046DF
:1008A000FFF717FF2268136943F0020313612368FF
:1008B00000221A6151E7D9696269E37C581CE0742F
:1008C00022F8131023685A6912F01F0FF3D1204643
:1008D000FFF702FF2268136943F0040313612368E2
:1008E00000221A6115F0080F20D0E27C237E9A4284
:1008F0000CD32268D36823F00C03D3600BE0D969D2
:100900006269E37C581CE07422F8131023685A696A
:1009100012F01F0FF3D12046FFF7DDFE22681369A6
:1009200043F008031361236800221A6138BD704741
:10093000FEE7FEE7FEE7FEE7704770477047704747
:1009400008B5044B0122C3F880210348FFF7C5FE18
:1009500008BD00BF00E100E0A800010008B5044B9D
:100960004FF48072C3F880210248FFF7D9FD08BD1B
:1009700000E100E00000014008B5044B4FF40072B4
:10098000C3F880210248FFF7DDFD08BD00E100E06B
:100990000000014008B5044B4FF48062C3F8802189
:1009A0000248FFF7E1FD08BD00E100E00000014062
:1009B00008B5044B4FF40062C3F880210248FFF7EA
:1009C000E5FD08BD00E100E00000014008B500F0D1
:1009D0003FF84FF08044BD23A360FFF7E3FBED2316
:1009E000A360FEE70A490B4A0B4B9B1A03DD043B4D
:1009F000C858D050FBDC0949094A00209142BCBFCD
:100A000041F8040BFAE7FFF7E1FF00F033F80000CC
:100A1000E00A000000000100680001006800010019
:100A2000C4000100FEE7FEE7FEE7FEE7FEE7FEE7A3
:100A3000FEE7FEE7FEE7FEE7FEE7FEE7FEE7FEE78E
:100A4000FEE7FEE7FEE7FEE7FEE7FEE7FEE7FEE77E
:100A500010B5054C054B23602046FFF7BAFD204634
:100A6000FFF7EAFD10BD00BFA80001000010004024
:100A70007047000008B5074B044613B10021AFF3DF
:100A80000080054B1868836A03B19847204600F040
:100A900005F800BF00000000D80A0000FEE700BF14
:100AA000F8B500BFF8BC08BC9E467047F8B500BF5B
:100AB000F8BC08BC9E46704762617374696D20344F
:100AC0006368206175746F72656C6F616420696E14
:100AD000742E0D0A0000000000000100000000005C
:100AE0000000000000000000000000000000000006
:100AF00000000000000000000000000000000000F6
:100B000000000000000000000000000000000000E5
:100B100000000000000000000000000000000000D5
:100B200000000000000000000000000000000000C5
:100B300000000000000000000000000000000000B5
:080B400099000000750000009F
:04000003000009E50B
:00000001FF
