:1000000000200100C10700005D0700005F0700003D
:1000100061070000630700006507000000000000A2
:100020000000000000000000000000006707000062
:1000300069070000000000006B0700006D0700006A
:1000400071070000150800001708000019080000DB
:100050001B0800008D07000010B5054C237833B94C
:10006000044B13B10448AFF300800123237010BD8B
:100070006800010000000000A408000008B5034B60
:100080001BB103490348AFF3008008BD0000000026
:100090006C000100A408000001600368934207D0CF
:1000A0004FF08043012018605A6802441A6070477C
:1000B00000204FF080431860704710B502680C882C
:1000C00064004FF0FF3303FA04FCC4F11E0E23FA60
:1000D0000EFE0CEA0E0C22EA0C0291F802C00CFA99
:1000E00004F4224302604468B1F800E04FF0010CD0
:1000F0000CFA0EF224EA0204CA7802FA0EF2144351
:100100004460C268B1F800E00CFA0EFC22EA0C026E
:100110000C7904FA0EF42243C2608269B1F800C07F
:100120004FEA4C0C03FA0CF4CCF11E0E23FA0EFE2F
:1001300004EA0E0422EA04024C7904FA0CFC42EAB6
:100140000C028261C269B1F800C04FEA4C0C03FA9C
:100150000CF4CCF11E0E23FA0EF3234022EA030323
:100160008A7902FA0CFC43EA0C03C36110BD38B56E
:1001700004460D46FFF7A1FF2988636A01228A40E1
:10018000134363620023636238BD70477047704752
:1001900070477047704770477047704770477047A7
:1001A000704770477047704738B50446C56A036AA0
:1001B0009BB21D4015F0010F31D115F0020F37D160
:1001C00015F0040F3ED115F0080F45D115F0100FB2
:1001D0004CD115F0200F53D115F0400F5AD115F026
:1001E000800F61D115F4807F68D115F4007F6FD145
:1001F00015F4806F76D115F4006F7DD115F4805F12
:1002000040F0848015F4005F40F08A8015F4804F40
:1002100040F0908015F4004F40F0968038BDFFF715
:10022000B4FF636A43F00103636200236362C4E7BF
:100230002046FFF7ABFF636A43F0020363620023CB
:100240006362BDE72046FFF7A2FF636A43F0040341
:10025000636200236362B6E7204600F079FA636ABE
:1002600043F00803636200236362AFE72046FFF7B1
:100270008FFF636A43F01003636200236362A8E7A1
:100280002046FFF786FF636A43F020036362002382
:100290006362A1E72046FFF77DFF636A43F04003F6
:1002A0006362002363629AE72046FFF774FF636A84
:1002B00043F0800363620023636293E72046FFF705
:1002C0006BFF636A43F480736362002363628CE7AD
:1002D0002046FFF762FF636A43F400736362002302
:1002E000636285E72046FFF759FF636A43F4806342
:1002F0006362002363627EE72046FFF750FF636A74
:1003000043F4006363620023636277E72046FFF7EC
:1003100047FF636A43F4805363620023636271E7BB
:100320002046FFF73EFF636A43F4005363620023F5
:1003300063626BE72046FFF735FF636A43F480434F
:1003400063620023636265E72046FFF72CFF636A60
:1003500043F400436362002363625FE74FF4E133D9
:1003600043600F230372002343728372C3720373CB
:10037000437301238373704708B54168037A03FB15
:1003800001F20E49B1FBF2F2190441EA0251437A3B
:1003900041EA0331837A41EAC321C37A41EA431136
:1003A000037B41EA0311427B41EA8201827B1143D4
:1003B00000680A460830FFF76FFE08BD005A620267
:1003C00038B5044600258574C574FFF7D5FF25743C
:1003D000A574E5742268536843F4807353602268FF
:1003E000536823F4807353602268536843F40073A6
:1003F00053602268536823F4007353602268536883
:1004000043F4806353602268536823F4806353602D
:100410002268536843F4006353602268536823F4EE
:1004200000635360236840F2FF121A6123681D6164
:100430002268536843F0010353602268536823F035
:10044000010353602268536843F00203536038BDD0
:1004500070477047704770477047704770477047E4
:10046000704738B5044603689D69DB689BB21D4040
:1004700015F4807F44D115F0400F0FD00123237471
:10048000A37A012B47D12046FFF7E3FF22681369C7
:1004900043F040031361236800221A6115F0800FB6
:1004A0000FD002232374A37A012B66D12046FFF7D5
:1004B000D1FF2268136943F080031361236800228F
:1004C0001A6115F0200F40F08A8015F0100F40F0EF
:1004D000928015F0010F40F09A8015F0020F40F065
:1004E000A28015F0040F00F0C180E27C237E9A42C6
:1004F000C0F0AC802268D36823F00C03D360AAE07C
:10050000FFF7A6FF2268136943F480731361236821
:1005100000221A61AFE72268D36823F0CC03D360CE
:1005200000232374A374E3742268536843F4807334
:1005300053602268536823F48073536022685368C1
:1005400043F4007353602268536823F400735360CC
:100550002268536843F4806353602268536823F42D
:10056000806353602268536843F4006353602268D9
:10057000536823F40063536085E72268D36823F04F
:10058000CC03D36000232374A374E37422685368FC
:1005900043F4807353602268536823F4807353607C
:1005A0002268536843F4007353602268536823F44D
:1005B000007353602268536843F480635360226879
:1005C000536823F4806353602268536843F40063E4
:1005D00053602268536823F40063536066E7204643
:1005E000FFF739FF2268136943F020031361236882
:1005F00000221A6169E72046FFF72EFF226813697F
:1006000043F010031361236800221A6161E720465A
:10061000FFF724FF2268136943F001031361236885
:1006200000221A6159E72046FFF717FF2268136975
:1006300043F002031361236800221A6151E7D9696C
:100640006269E37C581CE07422F8131023685A692D
:1006500012F01F0FF3D12046FFF702FF2268136943
:1006600043F004031361236800221A6115F0080F98
:1006700020D0E27C237E9A420CD32268D36823F0F8
:100680000C03D3600BE0D9696269E37C581CE07409
:1006900022F8131023685A6912F01F0FF3D1204675
:1006A000FFF7DDFE2268136943F008031361236836
:1006B00000221A6138BD000008B5044902230B80EE
:1006C00001238B700248FFF752FD08BD8400010032
:1006D00000A0004010B5074903230B8000238B7056
:1006E0008B71054C2046FFF742FD236A43F0080357
:1006F000236210BD8C00010000A0004008B5FFF788
:10070000DBFFFFF7E7FF0E4A002382F805332021C5
:1007100011600C4A13700C4A136943F0040313610F
:10072000084B1B78002BFBD0084800F089F8044BDD
:100730002022C3F88020BFF34F8FBFF36F8F08BD17
:1007400000E100E09400010000A0004088080000E3
:10075000014B01221A707047940001007047FEE7B8
:10076000FEE7FEE7FEE770477047704770470000FE
:1007700008B5044B0122C3F880210348FFF771FE3E
:1007800008BD00BF00E100E09800010008B5044B7F
:100790002022C3F880210348FFF706FD08BD00BFF3
:1007A00000E100E000A0004008B500F039F84FF08B
:1007B0008044BD23A360FFF7A1FFED23A360FEE704
:1007C0000A490B4A0B4B9B1A03DD043BC858D05017
:1007D000FBDC0949094A00209142BCBF41F8040BE7
:1007E000FAE7FFF7E1FF00F02DF80000A80800008D
:1007F000000001006800010068000100B400010071
:10080000FEE7FEE7FEE7FEE7FEE7FEE7FEE7FEE7C0
:10081000FEE7FEE7FEE7FEE7FEE7FEE7FEE700BFD6
:1008200010B5054C054B23602046FFF797FD204689
:10083000FFF7C6FD10BD00BF98000100001000408A
:100840007047000008B5074B044613B10021AFF311
:100850000080054B1868836A03B19847204600F072
:1008600005F800BF00000000A0080000FEE700BF80
:10087000F8B500BFF8BC08BC9E467047F8B500BF8D
:10088000F8BC08BC9E4670476770696F6133206989
:100890006E70757420686967682E0D0A000000008C
:0808A00000000100000000004F
:1008A8000000000000000000000000000000000040
:1008B8000000000000000000000000000000000030
:1008C8000000000000000000000000000000000020
:1008D8000000000000000000000000000000000010
:1008E8000000000000000000000000000000000000
:1008F80000000000000000000000000000000000F0
:080908007D0000005900000011
:04000003000007C131
:00000001FF
