:1000000000200200AD090000D9080000E908000046
:10001000EB080000ED080000EF0800000000000001
:10002000000000000000000000000000F1080000D7
:10003000F308000000000000F5080000F7080000C9
:10004000F9080000010A0000030A0000050A000088
:10005000070A0000090A00000B0A00000D0A000050
:100060000F0A0000110A0000130A0000150A000020
:10007000170A0000190A00001B0A00001D0A0000F0
:1000800015090000310900004D09000010B5054CAC
:10009000237833B9044B13B10448AFF30080012334
:1000A000237010BD6800020000000000A80A0000D4
:1000B00008B5034B1BB103490348AFF3008008BDEB
:1000C000000000006C000200A80A000010B5124CED
:1000D000124A226049F640436366042384F868307C
:1000E000012384F8693084F86A3084F86B3084F82E
:1000F0006C3084F86D30136843F0020313602046BF
:1001000000F04CF92368DA6F42F00202DA67DA6F26
:1001100042F00102DA6710BD8400020000100240C4
:1001200070B5FFF7D3FF0023134A1380134A1370EF
:10013000134C21680A6842F001020A6021680A68CB
:1001400022F001020A600F4D85F812334FF4802629
:100150002E602268136843F01003136000F010FC57
:100160002268136823F010031360C5F88060BFF3A2
:100170004F8FBFF36F8F70BDF6000200F9000200D1
:100180008400020000E100E01E4A13889BB20133A4
:100190009BB213801C4B1B78DBB2012B00D0704745
:1001A00011461088194B1B681A6992B242EA004244
:1001B0001A6108885A6992B242EA00425A610A8872
:1001C00092B240F6C2118A42E9D90E4A002111804A
:1001D0000F4A127852B19A6942F480429A619A6940
:1001E00022F400529A610A4B197070479A6922F4FE
:1001F00080429A619A6942F400529A61044B01224A
:100200001A70CCE7F6000200F4000200840002003D
:10021000FA000200034A13889BB201339BB2138099
:10022000704700BFF600020010B5084C2378013378
:10023000DBB22370064800F005FC2378DBB24FF0F8
:10024000804293600E23D36010BD00BFF80002000F
:100250008C0A000013480268536E1B0C926E03EB6D
:10026000830303EB830303EB1243DBB20E4A1370E9
:10027000137803EB830303EB83034FF080410B60A0
:100280000068436E806E03EB830303EB8303034438
:10029000DBB21370137803EB830303EB83034B6030
:1002A000704700BF84000200F8000200034A138870
:1002B0009BB201339BB21380704700BFF60002006F
:1002C000094A13889BB201339BB21380074B1B680A
:1002D000D3F884309BB24FF080421360044B1B78FC
:1002E000DBB25360704700BFF600020084000200DA
:1002F000F9000200024A13780133DBB21370704731
:10030000F900020038B504460368DD6EDB6DDBB230
:100310001D4015F0010F03D115F0020F0BD138BDB0
:10032000FFF798FF2268136E43F0010313662368FA
:1003300000221A66F0E72046FFF7B8FF2268136E26
:1003400043F002031366236800221A66E7E738B514
:100350000446416E00680A46703000F0A0F8054679
:1003600094F8683094F86910090441EA037194F82C
:100370006C3041EAC30194F86D3041EA830194F88E
:100380006A2041EA420194F86B20114320680A4632
:10039000743000F084F82843C0B238BD10B504466C
:1003A000FFF7D5FF2268136843F480631360226867
:1003B000136823F48063136023680322C3F880204A
:1003C00023680022C3F880202268136843F00103E9
:1003D00013602268136823F00103136010BD38B561
:1003E00004460368D3F88850DB6FDBB21D4015F07C
:1003F000010F03D115F0020F0ED138BDFFF760FFDA
:100400002268D2F8803043F00103C2F880302368BC
:100410000022C3F88020EDE72046FFF76BFF22683B
:10042000D2F8803043F00203C2F880302368002203
:10043000C3F88020E1E738B5044603689D6C1B6C67
:10044000DBB21D4015F0040F06D115F0010F0ED1DF
:1004500015F0020F17D138BDFFF7E6FE2268536C86
:1004600043F004035364236800225A64EDE72046F6
:10047000FFF78AFE2268536C43F00103536423683C
:1004800000225A64E4E72046FFF7C4FE2268536C5A
:1004900043F002035364236800225A64DBE70160DF
:1004A0000368934207D04FF08043012018605A68D8
:1004B00002441A60704700204FF080431860704774
:1004C0004FF4E13343600F230372002343728372BE
:1004D000C3720373437301238373704708B5416884
:1004E000037A03FB01F20E49B1FBF2F2190441EA6F
:1004F0000251437A41EA0331837A41EAC321C37A44
:1005000041EA4311037B41EA0311427B41EA820144
:10051000827B114300680A460830FFF7C0FF08BD20
:10052000005A620238B5044600258574C574FFF789
:10053000D5FF2574A574E5742268536843F480736D
:1005400053602268536823F48073536022685368B1
:1005500043F4007353602268536823F400735360BC
:100560002268536843F4806353602268536823F41D
:10057000806353602268536843F4006353602268C9
:10058000536823F400635360236840F2FF121A613A
:1005900023681D612268536843F001035360226899
:1005A000536823F0010353602268536843F0020349
:1005B000536038BD002A59D030B40BE0DB690B70B2
:1005C000002051E003685C6914F01F0FF6D1013A76
:1005D000002A48D003689D691C6944F0C0041C616E
:1005E000036800241C61ABB215F0400F01D0012458
:1005F000047413F0800F01D002230374037C002BDA
:10060000E0D0837A012BDDD0002303748374C3749C
:100610000468626842F4807262600468626822F46E
:10062000807262600468626842F40072626004680A
:10063000626822F4007262600468626842F4806258
:1006400062600468626822F48062626004686268C2
:1006500042F4006262600068426822F40062426014
:100660000B70012000E0022030BC70470220704770
:1006700070477047704770477047704770477047C2
:10068000704738B5044603689D69DB689BB21D401E
:1006900015F4807F44D115F0400F0FD0012323744F
:1006A000A37A012B47D12046FFF7E3FF22681369A5
:1006B00043F040031361236800221A6115F0800F94
:1006C0000FD002232374A37A012B66D12046FFF7B3
:1006D000D1FF2268136943F080031361236800226D
:1006E0001A6115F0200F40F08A8015F0100F40F0CD
:1006F000928015F0010F40F09A8015F0020F40F043
:10070000A28015F0040F00F0C180E27C237E9A42A3
:10071000C0F0AC802268D36823F00C03D360AAE059
:10072000FFF7A6FF2268136943F4807313612368FF
:1007300000221A61AFE72268D36823F0CC03D360AC
:1007400000232374A374E3742268536843F4807312
:1007500053602268536823F480735360226853689F
:1007600043F4007353602268536823F400735360AA
:100770002268536843F4806353602268536823F40B
:10078000806353602268536843F4006353602268B7
:10079000536823F40063536085E72268D36823F02D
:1007A000CC03D36000232374A374E37422685368DA
:1007B00043F4807353602268536823F4807353605A
:1007C0002268536843F4007353602268536823F42B
:1007D000007353602268536843F480635360226857
:1007E000536823F4806353602268536843F40063C2
:1007F00053602268536823F40063536066E7204621
:10080000FFF739FF2268136943F02003136123685F
:1008100000221A6169E72046FFF72EFF226813695C
:1008200043F010031361236800221A6161E7204638
:10083000FFF724FF2268136943F001031361236863
:1008400000221A6159E72046FFF717FF2268136953
:1008500043F002031361236800221A6151E7D9694A
:100860006269E37C581CE07422F8131023685A690B
:1008700012F01F0FF3D12046FFF702FF2268136921
:1008800043F004031361236800221A6115F0080F76
:1008900020D0E27C237E9A420CD32268D36823F0D6
:1008A0000C03D3600BE0D9696269E37C581CE074E7
:1008B00022F8131023685A6912F01F0FF3D1204653
:1008C000FFF7DDFE2268136943F008031361236814
:1008D00000221A6138BD000008B5024800F0B2F8E5
:1008E00008BD00BFA00A0000FEE7FEE7FEE7FEE746
:1008F000704770477047704708B5044B0122C3F832
:1009000080210348FFF7BDFE08BD00BF00E100E005
:10091000FC00020008B5044B4FF48032C3F880217C
:100920000248FFF788FD08BD00E100E084000200F6
:1009300008B5044B4FF40032C3F880210248FFF79A
:10094000E1FC08BD00E100E08400020008B5044BB2
:100950004FF48022C3F880210248FFF740FD08BD14
:1009600000E100E08400020008B500F05BF84FF001
:100970008044BD23A360FFF7D3FBED23A360FEE714
:1009800000B583B0074A0DF107010748FFF712FED3
:100990000028F7D19DF80730512BF3D103B05DF853
:1009A00004FB00BF90D00300FC0002000A490B4A80
:1009B0000B4B9B1A03DD043BC858D050FBDC0949A4
:1009C000094A00209142BCBF41F8040BFAE7FFF747
:1009D000CBFF00F039F80000AC0A00000000020074
:1009E000680002006800020018010200FEE7FEE74E
:1009F000FEE7FEE7FEE7FEE7FEE7FEE7FEE7FEE7CF
:100A0000FEE7FEE7FEE7FEE7FEE7FEE7FEE7FEE7BE
:100A1000FEE7FEE7FEE7FEE7FEE7FEE7FEE7FEE7AE
:100A2000FEE7FEE710B5054C054B23602046FFF7B7
:100A300047FD2046FFF776FD10BD00BFFC00020019
:100A4000001000407047000008B5074B044613B182
:100A50000021AFF30080054B1868836A03B1984703
:100A6000204600F005F800BF00000000A40A0000C6
:100A7000FEE700BFF8B500BFF8BC08BC9E46704753
:100A8000F8B500BFF8BC08BC9E4670474661756C5F
:100A900074206465746563746564210D0A00000048
:0C0AA0004E4D4900000002000000000064
:100AAC00000000000000000000000000000000003A
:100ABC00000000000000000000000000000000002A
:100ACC00000000000000000000000000000000001A
:100ADC00000000000000000000000000000000000A
:100AEC0000000000000000000000000000000000FA
:100AFC0000000000000000000000000000000000EA
:080B0C00B10000008D000000A3
:04000003000009AD43
:00000001FF
