:100000000020020009080000990700009B0700007B
:100010009D0700009F070000A107000000000000EE
:10002000000000000000000000000000A307000026
:10003000A507000000000000A7070000A9070000B6
:10004000AD0700005D0800005F08000061080000C7
:1000500063080000650800006708000069080000E8
:100060006B0800006D0800006F08000071080000B8
:10007000C90700007508000010B5054C237833B996
:10008000044B13B10448AFF300800123237010BD6B
:1000900090000200000000000809000008B5034BB2
:1000A0001BB103490348AFF3008008BD0000000006
:1000B000940002000809000001600368934207D021
:1000C0004FF08043012018605A6802441A6070475C
:1000D00000204FF0804318607047142303710323FE
:1000E0008371704708B502794179090441EA0261D8
:1000F000827941EA022100680A460830FFF7DCFFF6
:1001000008BD38B50446002545728572FFF7EAFF41
:10011000E5716572A5722268536843F400735360F9
:100120002268536823F4007353602268536843F4D1
:10013000806353602268536823F4806353602268AD
:10014000536843F4006353602268536823F40063E8
:10015000536023681F221A6123681D612268536857
:1001600043F0010353602268536823F00103536096
:1001700038BD10B400234372437A934218D2046806
:10018000236943F010032361036800241C610468A1
:1001900063691B0A13F0060FEED1437A03F1010CD9
:1001A00080F809C051F8233043F400132360E3E7DB
:1001B00003689A6912F0100FFAD01A6942F010021F
:1001C0001A61036800221A6110BC704710B594468A
:1001D00000238372837A634555D20268136943F022
:1001E00010031361036800221A6103685A6912F44C
:1001F000E06FFAD1827A51F8222042F480021A602C
:1002000003685B6913F0070FFAD0827A51F8223045
:100210001B0C1B0441F822300368DA69837A03F16E
:10022000010E80F80AE051F82340224341F82320D0
:1002300003689B6913F0200FCCD00023C371437275
:1002400083720268536843F4007353600268536812
:1002500023F4007353600268536843F4806353606F
:100260000268536823F4806353600268536843F460
:10027000006353600268536823F4006353600223F1
:10028000C37101200BE003689A6912F0100FFAD0D5
:100290001A6942F010021A6103680020186110BD4B
:1002A00070477047704770477047704738B50446CD
:1002B00003689D69DB68DBB21D4015F0200F0FD18C
:1002C00015F0100F19D115F0010F22D115F0020F02
:1002D0002BD115F0040F34D115F0080F3DD138BDE6
:1002E0000223C371FFF7DCFF2268136943F0200388
:1002F0001361236800221A61E2E72046FFF7D1FF6D
:100300002268136943F010031361236800221A6105
:10031000D9E72046FFF7C7FF2268136943F00103BE
:100320001361236800221A61D0E72046FFF7BAFF65
:100330002268136943F002031361236800221A61E3
:10034000C7E72046FFF7B1FF2268136943F00403B3
:100350001361236800221A61BEE72046FFF7A4FF5D
:100360002268136943F008031361236800221A61AD
:10037000B5E74FF4E13343600F2303720023437268
:100380008372C37203734373012383737047000046
:1003900008B54168037A03FB01F20E49B1FBF2F2A2
:1003A000190441EA0251437A41EA0331837A41EA6E
:1003B000C321C37A41EA4311037B41EA0311427B23
:1003C00041EA8201827B114300680A460830FFF748
:1003D00073FE08BD005A620238B5044600258574D4
:1003E000C574FFF7D5FF2574A574E57422685368BA
:1003F00043F4807353602268536823F4807353601E
:100400002268536843F4007353602268536823F4EE
:10041000007353602268536843F48063536022681A
:10042000536823F4806353602268536843F4006385
:1004300053602268536823F400635360236840F2DA
:10044000FF121A6123681D612268536843F001039B
:1004500053602268536823F0010353602268536895
:1004600043F00203536038BD7047704770477047D0
:100470007047704770477047704738B50446036847
:100480009D69DB689BB21D4015F4807F44D115F057
:10049000400F0FD001232374A37A012B47D12046AC
:1004A000FFF7E3FF2268136943F0400313612368F9
:1004B00000221A6115F0800F0FD002232374A37A53
:1004C000012B66D12046FFF7D1FF2268136943F064
:1004D00080031361236800221A6115F0200F40F099
:1004E0008A8015F0100F40F0928015F0010F40F057
:1004F0009A8015F0020F40F0A28015F0040F00F072
:10050000C180E27C237E9A42C0F0AC802268D3682E
:1005100023F00C03D360AAE0FFF7A6FF226813695B
:1005200043F480731361236800221A61AFE72268E5
:10053000D36823F0CC03D36000232374A374E37443
:100540002268536843F4807353602268536823F42D
:10055000807353602268536843F4007353602268C9
:10056000536823F4007353602268536843F4806334
:1005700053602268536823F4806353602268536891
:1005800043F4006353602268536823F400635360AC
:1005900085E72268D36823F0CC03D360002323745B
:1005A000A374E3742268536843F480735360226831
:1005B000536823F4807353602268536843F40073D4
:1005C00053602268536823F40073536022685368B1
:1005D00043F4806353602268536823F4806353605C
:1005E0002268536843F4006353602268536823F41D
:1005F0000063536066E72046FFF739FF22681369FE
:1006000043F020031361236800221A6169E7204642
:10061000FFF72EFF2268136943F01003136123686C
:1006200000221A6161E72046FFF724FF2268136960
:1006300043F001031361236800221A6159E7204641
:10064000FFF717FF2268136943F002031361236861
:1006500000221A6151E7D9696269E37C581CE07491
:1006600022F8131023685A6912F01F0FF3D12046A5
:10067000FFF702FF2268136943F004031361236844
:1006800000221A6115F0080F20D0E27C237E9A42E6
:100690000CD32268D36823F00C03D3600BE0D96934
:1006A0006269E37C581CE07422F8131023685A69CD
:1006B00012F01F0FF3D12046FFF7DDFE2268136909
:1006C00043F008031361236800221A6138BD00005B
:1006D00010B5054C054B23602046FFF7FEFC204675
:1006E000FFF70FFD10BD00BFAC000200000002408C
:1006F00010B50A4C192363712046FFF7F3FC2368F9
:100700005A6842F001025A605A6822F001025A60A7
:10071000022203492046FFF72CFD10BDAC00020069
:100720000000020008B5FFF7D3FFFFF7E1FF08BDA7
:1007300038B5082212491348FFF748FD20B912487E
:1007400000F0AAF8002415E0104800F0A5F84FF0DA
:1007500080434FF6FF721A6011E0094D55F82410DE
:100760000B4800F09AF855F824204FF080435A6067
:100770000134E4B2072CF0D9064800F08DF838BDFA
:1007800008000200AC000200F0080000E0080000D1
:1007900000090000EC0800007047FEE7FEE7FEE7F6
:1007A000FEE77047704770477047000008B5044B7C
:1007B0000122C3F880210348FFF75FFE08BD00BF98
:1007C00000E100E0C000020008B5044B4FF4805285
:1007D000C3F880210248FFF769FD08BD00E100E091
:1007E000AC00020008B500F047F84FF08044BD238C
:1007F000A360FFF797FF40F6D133A360FFF798FFA0
:10080000ED23A360FEE700000A490B4A0B4B9B1A3D
:1008100003DD043BC858D050FBDC0949094A0020DD
:100820009142BCBF41F8040BFAE7FFF7DBFF00F091
:1008300035F800000C0900000000020090000200E2
:1008400090000200DC000200FEE7FEE7FEE7FEE7A4
:10085000FEE7FEE7FEE7FEE7FEE7FEE7FEE7FEE770
:10086000FEE7FEE7FEE7FEE7FEE7FEE7FEE7FEE760
:10087000FEE7FEE7FEE700BF10B5054C054B236021
:100880002046FFF776FD2046FFF7A6FD10BD00BF0E
:10089000C0000200001000407047704708B5074BC9
:1008A000044613B10021AFF30080054B1868836A3A
:1008B00003B19847204600F005F800BF0000000093
:1008C00004090000FEE700BFF8B500BFF8BC08BC93
:1008D0009E467047F8B500BFF8BC08BC9E467047FE
:1008E000623530363130206E61636B2E0D0A0000A8
:1008F00062353036313020726561643A0D0A00008D
:0C09000025782000280002000000000004
:10090C0000A1000000210000000000000000010018
:10091C0000000200000003000000040000000500BD
:10092C00000006000000190000000000000000009C
:10093C0000000000000000000000000000000000AB
:10094C00000000000000000000000000000000009B
:10095C00000000000000000000000000000000008B
:10096C00000000000000000000000000000000007B
:10097C00000000000000000000000000000000006B
:10098C0000000000000000009D0000007900000045
:0400000300000809E8
:00000001FF
