:1000000000200200C1100000410E0000510E00004F
:10001000530E0000550E0000570E000000000000B7
:10002000000000000000000000000000590E000069
:100030005B0E0000000000005D0E00005F0E00007F
:10004000610E0000151100001711000019110000C9
:100050001B1100001D1100001F11000021110000E4
:1000600023110000251100002711000029110000B4
:100070002B1100002D1100002F1100003111000084
:10008000A510000035110000250E000010B5054C2C
:10009000237833B9044B13B10448AFF30080012334
:1000A000237010BD1403020000000000902A00001D
:1000B00008B5034B1BB103490348AFF3008008BDEB
:1000C0000000000018030200902A000038B5334CED
:1000D000334A22600223A3804FF47A61E180002535
:1000E0002581A572E5724823A3810123E375237658
:1000F0006576A3760720A07325746574A18384F8C0
:10010000273084F8285084F8223084F82050A185C4
:1001100084F8373084F8385084F8323084F830501E
:100120000421A4F84E10A57584F8501084F85130BD
:1001300084F8523084F8535084F854501949616659
:10014000082184F8681084F8693084F86A3084F8EB
:100150006B3084F86C3084F86D30136843F0020320
:100160001360204600F062FB204600F0E4F92268AC
:10017000136843F0010313602268136823F001033E
:100180001360094B83F8105383F812534FF48032F5
:100190001A604FF480221A6038BD00BF300302009D
:1001A0000010024000093D0000E100E008B500F049
:1001B0001BFF08BD08B500F0F9FE08BD10B50446E8
:1001C000064BD860002101F099FE18B9204600F0D6
:1001D00021FF10BD04F10044F8E700BFA0030200B6
:1001E00008B500F033FF08BD10B5154B9C68002121
:1001F000204601F083FE90B91249204601F09CFE92
:1002000000B1104C1049204601F078FE00B10E4CB0
:10021000002000F01BFF2046FFF7D0FF10BD0B4968
:10022000204601F06BFE00B1084C0949204601F060
:1002300083FE00B1064C012000F008FFEBE700BF91
:10024000A003020000409C450000C84200409CC53D
:100250000000C8C2094B00229A705A70C3F8AC2043
:100260000021D9601A82C3F8901083F89820C3F84F
:100270009C20C3F8A020C3F8A4107047A00302007C
:1002800008B5FFF7E7FFFFF721FF044B044A9A6028
:100290000122DA7000221A7008BD00BFA00302001C
:1002A0000000484310B50E4CA068FFF787FFE078C8
:1002B000FFF796FF0B4A11680B6843F001030B60D0
:1002C0001268136823F0010313600123A3706370A5
:1002D00000232370FFF76AFF00F0BCF810BD00BFD9
:1002E000A00302003003020008B5FFF763FF00F02F
:1002F000B5F8FFF7AFFF08BD10B50E4CA1780E485A
:1003000000F02EFFA06801F021FE01460B4800F02E
:1003100027FFD4F8900001F019FE0146084800F0CC
:100320001FFF2179074800F01BFF2178064800F0E5
:1003300017FF10BDA0030200F0280000FC280000F9
:100340000C290000202900003829000038B51A4D7A
:100350001A49A86801F02CFB0446A860002101F0AE
:10036000EBFD80B11649204601F0E6FD08B1144AC4
:10037000AA601249104B986801F0C0FD10B10E4BF5
:100380000E4A9A6038BD0021204601F0B7FD0028D2
:10039000F8D00C49204601F0B1FD10B1064B094AD6
:1003A0009A600949044B986801F0C6FD0028E9D01D
:1003B000014B054A9A60E5E7A00302000000C8422D
:1003C00000409C4500409CC50000C8C238B51A4D8D
:1003D0001A49A86801F0EAFA0446A860002101F071
:1003E000ABFD80B11649204601F0A6FD08B1144AC4
:1003F000AA601249104B986801F080FD10B10E4BB5
:100400000E4A9A6038BD0021204601F077FD002891
:10041000F8D00C49204601F071FD10B1064B094A95
:100420009A600949044B986801F086FD0028E9D0DC
:10043000014B054A9A60E5E7A00302000000C842AC
:1004400000409C4500409CC50000C8C208B5FFF7AD
:10045000CBFE08BD08B500F0B7FC08BD08B500F03C
:10046000A1FC08BD0000000010B5114CD4F89C00A0
:1004700000F0CCFF00220F4B01F05CF90AA3D3E996
:10048000002301F02DF800220B4B01F029F8002287
:100490000A4B01F025F801F035FAC4F8A400C4F8BD
:1004A000900010BDAFF300803333333333733440E7
:1004B000A00302000040704000409F4000004E40FA
:1004C00010B54FF08044B223636000F08FFC00F061
:1004D0009BFCB3236360FFF7C7FFB4236360FFF7A0
:1004E000B5FFB523636010BD38B50446416E0068A2
:1004F0000A46703000F0EFF9054694F8683094F839
:100500006910090441EA037194F86C3041EAC301AF
:1005100094F86D3041EA830194F86A2041EA42017F
:1005200094F86B20114320680A46743000F0D3F928
:100530002843C0B238BD10B50446FFF7D5FF226886
:10054000136843F4806313602268136823F48063A4
:10055000136023680322C3F8802023680022C3F8B5
:1005600080202268136843F0010313602268136837
:1005700023F00103136010BD704738B504460368CB
:10058000D3F88850DB6FDBB21D4015F0010F03D1AB
:1005900015F0020F0ED138BDFFF792FF2268D2F896
:1005A000803043F00103C2F8803023680022C3F892
:1005B0008020EDE72046FFF7DFFF2268D2F8803089
:1005C00043F00203C2F8803023680022C3F8802081
:1005D000E1E738B504468288C18841EA02410068F3
:1005E0000A46043000F077F905462189090420689D
:1005F0000A46083000F06FF90543EDB2A27AE17ABD
:1006000041EA420120680A460C3000F064F90543D3
:10061000EDB2A389217D890341EA0341637D41EA6B
:100620004331237C41EA0331637C41EAC321A37C4B
:1006300041EA8321E37C41EA4321A37D41EA03218E
:10064000E37D41EA4311237E41EA0311637E41EADF
:10065000C311A27E41EA8211A27B114320680A469F
:10066000103000F038F90543EDB2A38B94F8241054
:10067000890341EA034194F8253041EA433194F873
:10068000203041EA033194F8213041EAC32194F843
:10069000223041EA832194F8233041EA432194F83F
:1006A000263041EA032194F8273041EA431194F8B7
:1006B000283041EA031194F8293041EAC31194F833
:1006C0002A2041EA8211A27F114320680A46143091
:1006D00000F001F90543EDB2A38D94F834108903BD
:1006E00041EA034194F8353041EA433194F830301F
:1006F00041EA033194F8313041EAC32194F83230B1
:1007000041EA832194F8333041EA432194F83630AA
:1007100041EA032194F8373041EA431194F8383024
:1007200041EA031194F8393041EAC31194F83A20B0
:1007300041EA821194F82E20114320680A461830AD
:1007400000F0C9F80543EDB2A38F94F83F100903F8
:1007500041EA034194F8403041EA431194F84120C2
:1007600041EAC21194F83E20114320680A461C3029
:1007700000F0B1F80543EDB2B4F84230E17B490333
:1007800041EA0341E37F41EA833194F82F3041EAA3
:10079000C33194F8453041EA033194F8463041EAD8
:1007A000431194F8472041EAC21194F844201143C0
:1007B00020680A46203000F08EF80543EDB2B4F808
:1007C000483094F84B10090341EA034194F84C3047
:1007D00041EA431194F84D2041EAC21194F84A20AD
:1007E000114320680A46243000F075F80543EDB245
:1007F00094F8503094F85410490341EA034194F8B6
:10080000523041EA033194F8533041EAC32194F85D
:10081000512041EA8221B4F84E20114320680A4653
:10082000283000F058F82843C0B238BD10B504464F
:10083000FFF7CFFE2268136843F4807313602268C9
:10084000136823F480731360236807225A642368B3
:1008500000225A642268136843F00103136022687F
:10086000136823F00103136010BD7047704738B55B
:10087000044603689D6C1B6CDBB21D4015F0040F31
:1008800006D115F0010F0ED115F0020F17D138BDAA
:1008900000F0FAFB2268536C43F0040353642368AE
:1008A00000225A64EDE72046FFF7DFFF2268536C11
:1008B00043F001035364236800225A64E4E72046AE
:1008C000FFF7D4FF2268536C43F00203536423689C
:1008D00000225A64DBE701600368934207D04FF0BF
:1008E0008043012018605A6802441A607047002053
:1008F0004FF08043186070474FF4E13343600F239B
:100900000372002343728372C37203734373012320
:100910008373704708B54168037A03FB01F20E49FF
:10092000B1FBF2F2190441EA0251437A41EA033180
:10093000837A41EAC321C37A41EA4311037B41EA46
:100940000311427B41EA8201827B114300680A461F
:100950000830FFF7C0FF08BD005A620238B50446F0
:1009600000258574C574FFF7D5FF2574A574E5745B
:100970002268536843F4807353602268536823F4F9
:10098000807353602268536843F400735360226895
:10099000536823F4007353602268536843F4806300
:1009A00053602268536823F480635360226853685D
:1009B00043F4006353602268536823F40063536078
:1009C000236840F2FF121A6123681D612268536890
:1009D00043F0010353602268536823F0010353601E
:1009E0002268536843F00203536038BD10B40023FB
:1009F000837490F812C094450CD2046863691B0A92
:100A000013F0180FF5D10CF10103837411F80C30B9
:100A10002360EEE703689A6912F4807FFAD01A69BE
:100A200042F480721A61036800221A6110BC704798
:100A3000002A59D030B40BE0DB690B70002051E084
:100A400003685C6914F01F0FF6D1013A002A48D000
:100A500003689D691C6944F0C0041C61036800249C
:100A60001C61ABB215F0400F01D00124047413F0E7
:100A7000800F01D002230374037C002BE0D0837A23
:100A8000012BDDD0002303748374C374046862688F
:100A900042F4807262600468626822F4807262606C
:100AA0000468626842F4007262600468626822F45A
:100AB000007262600468626842F480626260046886
:100AC000626822F4806262600468626842F40062D4
:100AD00062600068426822F4006242600B7001208C
:100AE00000E0022030BC704702207047704770471A
:100AF000704770477047704770477047704738B508
:100B0000044603689D69DB689BB21D4015F4807F35
:100B100044D115F0400F0FD001232374A37A012B89
:100B200047D12046FFF7E3FF2268136943F04003F3
:100B30001361236800221A6115F0800F0FD0022381
:100B40002374A37A012B66D12046FFF7D1FF2268D8
:100B5000136943F080031361236800221A6115F0C2
:100B6000200F40F08A8015F0100F40F0928015F0B1
:100B7000010F40F09A8015F0020F40F0A28015F0AE
:100B8000040F00F0C180E27C237E9A42C0F0AC806A
:100B90002268D36823F00C03D360AAE0FFF7A6FF16
:100BA0002268136943F480731361236800221A6179
:100BB000AFE72268D36823F0CC03D360002323740B
:100BC000A374E3742268536843F48073536022680B
:100BD000536823F4807353602268536843F40073AE
:100BE00053602268536823F400735360226853688B
:100BF00043F4806353602268536823F48063536036
:100C00002268536843F4006353602268536823F4F6
:100C10000063536085E72268D36823F0CC03D36078
:100C200000232374A374E3742268536843F480732D
:100C300053602268536823F48073536022685368BA
:100C400043F4007353602268536823F400735360C5
:100C50002268536843F4806353602268536823F426
:100C6000806353602268536843F4006353602268D2
:100C7000536823F40063536066E72046FFF739FFAB
:100C80002268136943F020031361236800221A616C
:100C900069E72046FFF72EFF2268136943F010032F
:100CA0001361236800221A6161E72046FFF724FFE1
:100CB0002268136943F001031361236800221A615B
:100CC00059E72046FFF717FF2268136943F0020334
:100CD0001361236800221A6151E7D9696269E37CD4
:100CE000581CE07422F8131023685A6912F01F0F81
:100CF000F3D12046FFF702FF2268136943F0040393
:100D00001361236800221A6115F0080F20D0E27CDD
:100D1000237E9A420CD32268D36823F00C03D3605D
:100D20000BE0D9696269E37C581CE07422F8131067
:100D300023685A6912F01F0FF3D12046FFF7DDFE3A
:100D40002268136943F008031361236800221A61C3
:100D500038BD000000B5A1B00A460146684601F062
:100D600047F9002805DC684601F024F921B05DF858
:100D700004FB684601F01EF9C2B269460148FFF75C
:100D800035FEF0E7500402000FB400B583B004A9AB
:100D900051F8040B0191FFF7DDFF03B05DF804EBA0
:100DA00004B07047074A11680B6823F010030B600A
:100DB0001368DA6F42F00202DA67DA6F42F001027A
:100DC000DA67704730030200074B1B68DA6F42F0A6
:100DD0000202DA67DA6F42F00102DA671A6842F05B
:100DE00010021A60704700BF30030200044B1B68FA
:100DF000D3F884309BB2034AC2F89C30704700BFDE
:100E000030030200A0030200044B1B68D3F88430B7
:100E1000C3F30043024A82F8A8307047300302004F
:100E2000A003020008B5044B4FF48022C3F88021D0
:100E30000248FFF7A2FB08BD00E100E0300302001A
:100E400008B5024800F088F908BD00BF4429000039
:100E5000FEE7FEE7FEE7FEE7704770477047704722
:100E600008B5044B0122C3F880210348FFF747FE71
:100E700008BD00BF00E100E05004020070B5054667
:100E80000E460B48FFF780FF00240BE004EB041331
:100E900005EBC302083215F833100648FFF774FF5C
:100EA0000134E4B2B442F1D30348FFF76DFF70BDE3
:100EB00048290000642900006C290000F0B583B0C7
:100EC00005460E461FE02148FFF75EFF0BE007F1E5
:100ED000080421461E48FFF757FF7B6898472146C4
:100EE0001C48FFF751FF03B0F0BD1B48FFF74CFF54
:100EF0001A4C94F8A8101A4800F032F9D4F89C1053
:100F0000184800F02DF900238DF80730164A0DF12E
:100F100007011648FFF78CFD04460028E8D19DF82C
:100F200007101348FFF730FF9DF80720512ACAD059
:100F3000B442DAD204EB041305EBC30715F83330DF
:100F40009A42C4D00134E4B2F2E700BFAC290000F9
:100F5000C4290000D4290000E4290000A0030200F5
:100F6000F8290000002A000090D00300500402007D
:100F70009C29000010B5054C05212046FFF77EFF97
:100F800005212046FFF79AFF10BD00BF00000200B8
:100F900008B500F0D1F8FFF773F9034800F0DCF86A
:100FA000FFF7E8FFFCE700BF082A00000D490B68C7
:100FB0001A6C22F002021A641A6C22F001021A64FE
:100FC0001A6C22F004021A6407225A6400225A643E
:100FD0001A6842F480721A600A68136823F48073F6
:100FE0001360704730030200094A11680B6843F030
:100FF00004030B6013681A6C42F002021A641A6C44
:1010000042F001021A641A6C42F004021A6470473A
:101010003003020008B5094900F0D2FD084900F08C
:1010200083FE00F093FF83B2064A1382064A1268D9
:10103000106980B240EA0340106108BD00007A45A3
:1010400000E02B46A0030200300302000C4B187195
:1010500050B90C4B1B685A6922F480425A619A6954
:1010600042F480429A617047064B1B689A6922F4E9
:1010700080429A615A6942F480425A61704700BFC7
:10108000A00302003003020008B5FFF72DF9034B5F
:1010900001221A70024800F05FF808BDA0030200A8
:1010A000302A000008B5044B4FF48032C3F8802189
:1010B0000248FFF7DCFB08BD00E100E0300302005E
:1010C0000A490B4A0B4B9B1A03DD043BC858D0500E
:1010D000FBDC0949094A00209142BCBF41F8040BDE
:1010E000FAE7FFF755FF00F051FF0000942A0000D7
:1010F0000000020014030200140302008004020036
:10110000FEE7FEE7FEE7FEE7FEE7FEE7FEE7FEE7B7
:10111000FEE7FEE7FEE7FEE7FEE7FEE7FEE7FEE7A7
:10112000FEE7FEE7FEE7FEE7FEE7FEE7FEE7FEE797
:10113000FEE7FEE7FEE7FEE710B5054C054B236032
:101140002046FFF7D9FB2046FFF708FC10BD00BF83
:10115000500402000010004008B5FFF715FE08BD5E
:1011600008B5FFF711FE08BD81F0004102E000BFA5
:1011700083F0004330B54FEA41044FEA430594EA57
:10118000050F08BF90EA020F1FBF54EA000C55EA92
:10119000020C7FEA645C7FEA655C00F0E2804FEA63
:1011A0005454D4EB5555B8BF6D420CDD2C4480EA45
:1011B000020281EA030382EA000083EA010180EA75
:1011C000020281EA0303362D88BF30BD11F0004FC3
:1011D0004FEA01314FF4801C4CEA113102D04042F9
:1011E00061EB410113F0004F4FEA03334CEA133334
:1011F00002D0524263EB430394EA050F00F0A7804C
:10120000A4F10104D5F1200E0DDB02FA0EFC22FA46
:1012100005F2801841F1000103FA0EF2801843FA3A
:1012200005F359410EE0A5F120050EF1200E012A2B
:1012300003FA0EFC28BF4CF0020C43FA05F3C01869
:1012400051EBE37101F0004507D54FF0000EDCF1E2
:10125000000C7EEB00006EEB0101B1F5801F1BD38B
:10126000B1F5001F0CD349085FEA30004FEA3C0C8F
:1012700004F101044FEA445212F5800F80F09A8085
:10128000BCF1004F08BF5FEA500C50F1000041EB89
:10129000045141EA050130BD5FEA4C0C404141EB8D
:1012A0000101013C28BFB1F5801FE9D291F0000F88
:1012B00004BF01460020B1FA81F308BF2033A3F137
:1012C0000B03B3F120020CDA0C3208DD02F1140C2E
:1012D000C2F10C0201FA0CF021FA02F10CE002F169
:1012E0001402D8BFC2F1200C01FA02F120FA0CFC62
:1012F000DCBF41EA0C019040E41AA2BF01EB0451AB
:10130000294330BD6FEA04041F3C1CDA0C340EDCA8
:1013100004F11404C4F1200220FA04F001FA02F3EB
:1013200040EA030021FA04F345EA030130BDC4F1A9
:101330000C04C4F1200220FA02F001FA04F340EA9E
:101340000300294630BD21FA04F0294630BD94F04F
:10135000000F83F4801306BF81F480110134013D36
:101360004EE77FEA645C18BF7FEA655C29D094EAA7
:10137000050F08BF90EA020F05D054EA000C04BF25
:101380001946104630BD91EA030F1EBF0021002010
:1013900030BD5FEA545C05D14000494128BF41F0AF
:1013A000004130BD14F580043CBF01F5801130BD13
:1013B00001F0004545F0FE4141F470014FF000009E
:1013C00030BD7FEA645C1ABF194610467FEA655C4F
:1013D0001CBF0B46024650EA013406BF52EA0335F1
:1013E00091EA030F41F4002130BD00BF90F0000FDF
:1013F00004BF0021704730B54FF4806404F132041B
:101400004FF000054FF0000150E700BF90F0000FD3
:1014100004BF0021704730B54FF4806404F13204FA
:1014200010F0004548BF40424FF000013EE700BFCA
:1014300042004FEAE2014FEA31014FEA02701FBF5A
:1014400012F07F4393F07F4F81F06051704732F08C
:101450007F4208BF704793F07F4F04BF41F40021E3
:10146000704730B54FF4607401F0004521F0004141
:101470001CE700BF50EA010208BF704730B54FF0CB
:1014800000050AE050EA010208BF704730B511F0CC
:10149000004502D5404261EB41014FF4806404F104
:1014A00032045FEA915C3FF4D8AE4FF003025FEA8A
:1014B000DC0C18BF03325FEADC0C18BF033202EB0E
:1014C000DC02C2F1200300FA03FC20FA02F001FA68
:1014D00003FE40EA0E0021FA02F11444BDE600BF0B
:1014E00070B54FF0FF0C4CF4E06C1CEA11541DBFBA
:1014F0001CEA135594EA0C0F95EA0C0F00F0DEF885
:101500002C4481EA030621EA4C5123EA4C5350EA69
:10151000013518BF52EA033541F4801143F48013BA
:1015200038D0A0FB02CE4FF00005E1FB02E506F04B
:101530000042E0FB03E54FF00006E1FB03569CF0A0
:10154000000F18BF4EF0010EA4F1FF04B6F5007FA6
:1015500064F5407404D25FEA4E0E6D4146EB060618
:1015600042EAC62141EA55514FEAC52040EA5E50A1
:101570004FEACE2EB4F1FD0C88BFBCF5E06F1ED84B
:10158000BEF1004F08BF5FEA500E50F1000041EB82
:10159000045170BD06F0004646EA010140EA02002F
:1015A00081EA0301B4EB5C04C2BFD4EB0C0541EA51
:1015B000045170BD41F480114FF0000E013C00F366
:1015C000AB8014F1360FDEBF002001F0004170BD8A
:1015D000C4F10004203C35DA0C341BDC04F11404A3
:1015E000C4F1200500FA05F320FA04F001FA05F22F
:1015F00040EA020001F0004221F0004110EBD370FC
:1016000021FA04F642EB06015EEA430E08BF20EA27
:10161000D37070BDC4F10C04C4F1200500FA04F3CA
:1016200020FA05F001FA04F240EA020001F000415C
:1016300010EBD37041F100015EEA430E08BF20EACF
:10164000D37070BDC4F1200500FA05F24EEA020E17
:1016500020FA04F301FA05F243EA020321FA04F046
:1016600001F0004121FA04F220EA020000EBD370FD
:101670005EEA430E08BF20EAD37070BD94F0000FFD
:101680000FD101F00046400041EB010111F4801F31
:1016900008BF013CF7D041EA060195F0000F18BFE2
:1016A000704703F00046520043EB030313F4801F1E
:1016B00008BF013DF7D043EA0603704794EA0C0FD8
:1016C0000CEA135518BF95EA0C0F0CD050EA4106EE
:1016D00018BF52EA4306D1D181EA030101F000416B
:1016E0004FF0000070BD50EA410606BF1046194693
:1016F00052EA430619D094EA0C0F02D150EA01369F
:1017000013D195EA0C0F05D152EA03361CBF1046DF
:1017100019460AD181EA030101F0004141F0FE417E
:1017200041F470014FF0000070BD41F0FE4141F402
:10173000780170BD70B54FF0FF0C4CF4E06C1CEA02
:1017400011541DBF1CEA135594EA0C0F95EA0C0FB7
:1017500000F0A7F8A4EB050481EA030E52EA033572
:101760004FEA013100F088804FEA03334FF0805593
:1017700045EA131343EA12634FEA022245EA1115C0
:1017800045EA10654FEA00260EF000419D4208BF71
:10179000964244F1FD0404F5407402D25B084FEA1E
:1017A0003202B61A65EB03055B084FEA32024FF4CA
:1017B00080104FF4002CB6EB020E75EB030E22BF27
:1017C000B61A754640EA0C005B084FEA3202B6EBE7
:1017D000020E75EB030E22BFB61A754640EA5C0096
:1017E0005B084FEA3202B6EB020E75EB030E22BF26
:1017F000B61A754640EA9C005B084FEA3202B6EB27
:10180000020E75EB030E22BFB61A754640EADC00E5
:1018100055EA060E18D04FEA051545EA16754FEA47
:1018200006164FEAC30343EA52734FEAC2025FEA65
:101830001C1CC0D111F4801F0BD141EA00014FF0F4
:1018400000004FF0004CB6E711F4801F04BF0143C5
:101850000020B4F1FD0C88BFBCF5E06F3FF6AFAEE1
:10186000B5EB030C04BFB6EB020C5FEA500C50F171
:10187000000041EB045170BD0EF0004E4EEA1131F4
:1018800014EB5C04C2BFD4EB0C0541EA045170BDFB
:1018900041F480114FF0000E013C90E645EA060E3F
:1018A0008DE60CEA135594EA0C0F08BF95EA0C0F6D
:1018B0003FF43BAF94EA0C0F0AD150EA01347FF4B5
:1018C00034AF95EA0C0F7FF425AF104619462CE78C
:1018D00095EA0C0F06D152EA03353FF4FDAE1046EF
:1018E000194622E750EA410618BF52EA43067FF440
:1018F000C5AE50EA41047FF40DAF52EA43057FF4D0
:10190000EBAE12E74FEA4102B2F1E04324BFB3F578
:10191000001CDCF1FE5C0DD901F0004C4FEAC00266
:101920004CEA5070B2F1004F40EB830008BF20F04A
:101930000100704711F0804F21D113F13872BCBF04
:1019400001F00040704741F480114FEA5252C2F159
:101950001802C2F1200C10FA0CF320FA02F018BFA2
:1019600040F001004FEAC1234FEAD32303FA0CFCF5
:1019700040EA0C0023FA02F34FEA4303CCE77FEA84
:10198000625307D150EA01331EBF4FF0FE4040F4CE
:101990004000704701F0004040F0FE4040F400007D
:1019A000704700BF80F0004002E000BF81F00041BE
:1019B00042001FBF5FEA410392EA030F7FEA226CF5
:1019C0007FEA236C6AD04FEA1262D2EB1363C1BF85
:1019D000D218414048404140B8BF5B42192B88BFF4
:1019E000704710F0004F40F4000020F07F4018BF17
:1019F000404211F0004F41F4000121F07F4118BF37
:101A0000494292EA030F3FD0A2F1010241FA03FCDE
:101A100010EB0C00C3F1200301FA03F100F00043C6
:101A200002D5494260EB4000B0F5000F13D3B0F18E
:101A3000807F06D340084FEA310102F10102FE2AFD
:101A400051D2B1F1004F40EBC25008BF20F001006D
:101A500040EA03007047490040EB0000013A28BF0C
:101A6000B0F5000FEDD2B0FA80FCACF1080CB2EB8F
:101A70000C0200FA0CF0AABF00EBC250524218430D
:101A8000BCBFD0401843704792F0000F81F40001B2
:101A900006BF80F400000132013BB5E74FEA410385
:101AA0007FEA226C18BF7FEA236C21D092EA030FF1
:101AB00004D092F0000F08BF0846704790EA010F6B
:101AC0001CBF0020704712F07F4F04D1400028BF98
:101AD00040F00040704712F100723CBF00F500007A
:101AE000704700F0004343F0FE4040F400007047B0
:101AF0007FEA226216BF08467FEA2363014642025C
:101B000006BF5FEA412390EA010F40F4800070476E
:101B10004FF0000304E000BF10F0004348BF404214
:101B20005FEA000C08BF704743F0964301464FF050
:101B300000001CE050EA010208BF70474FF00003AC
:101B40000AE000BF50EA010208BF704711F00043ED
:101B500002D5404261EB41015FEA010C02BF8446BD
:101B60000146002043F0B64308BFA3F18053A3F51C
:101B70000003BCFA8CF2083AA3EBC25310DB01FA63
:101B800002FC634400FA02FCC2F12002BCF1004FE7
:101B900020FA02F243EB020008BF20F00100704778
:101BA00002F1200201FA02FCC2F1200250EA4C00CC
:101BB00021FA02F243EB020008BF20EADC70704712
:101BC0004FF0FF0C1CEAD0521EBF1CEAD15392EA20
:101BD0000C0F93EA0C0F6FD01A4480EA010C4002FC
:101BE00018BF5FEA41211ED04FF0006343EA501056
:101BF00043EA5111A0FB01310CF00040B1F5000F98
:101C00003EBF490041EAD3715B0040EA010062F146
:101C10007F02FD2A1DD8B3F1004F40EBC25008BF30
:101C200020F00100704790F0000F0CF0004C08BF4E
:101C300049024CEA502040EA51207F3AC2BFD2F11B
:101C4000FF0340EAC250704740F400004FF0000329
:101C5000013A5DDC12F1190FDCBF00F00040704763
:101C6000C2F10002410021FA02F1C2F1200200FAA1
:101C700002FC5FEA310040F1000053EA4C0308BF68
:101C800020EADC70704792F0000F00F0004C02BFB9
:101C9000400010F4000F013AF9D040EA0C0093F034
:101CA000000F01F0004C02BF490011F4000F013B8E
:101CB000F9D041EA0C018FE70CEAD15392EA0C0FFC
:101CC00018BF93EA0C0F0AD030F0004C18BF31F067
:101CD000004CD8D180EA010000F00040704790F03D
:101CE000000F17BF90F0004F084691F0000F91F0E1
:101CF000004F14D092EA0C0F01D142020FD193EAA7
:101D00000C0F03D14B0218BF084608D180EA01002E
:101D100000F0004040F0FE4040F40000704740F00A
:101D2000FE4040F4400070474FF0FF0C1CEAD052D8
:101D30001EBF1CEAD15392EA0C0F93EA0C0F69D034
:101D4000A2EB030280EA010C49024FEA402037D09F
:101D50004FF0805343EA111143EA10130CF0004096
:101D60008B4238BF5B0042F17D024FF4000C8B4286
:101D700024BF5B1A40EA0C00B3EB510F24BFA3EB66
:101D8000510340EA5C00B3EB910F24BFA3EB910336
:101D900040EA9C00B3EBD10F24BFA3EBD10340EA90
:101DA000DC001B0118BF5FEA1C1CE0D1FD2A3FF6D6
:101DB00050AF8B4240EBC25008BF20F0010070478B
:101DC0000CF0004C4CEA50207F32C2BFD2F1FF032E
:101DD00040EAC250704740F400004FF00003013A5F
:101DE00037E792F0000F00F0004C02BF400010F403
:101DF000000F013AF9D040EA0C0093F0000F01F017
:101E0000004C02BF490011F4000F013BF9D041EA38
:101E10000C0195E70CEAD15392EA0C0F08D142026B
:101E20007FF47DAF93EA0C0F7FF470AF084676E73E
:101E300093EA0C0F04D14B023FF44CAF08466EE717
:101E400030F0004C18BF31F0004CCAD130F00042E5
:101E50007FF45CAF31F000437FF43CAF5FE700BF3D
:101E60004FF0FF3C06E000BF4FF0010C02E000BF66
:101E70004FF0010C4DF804CD4FEA40024FEA410308
:101E80007FEA226C18BF7FEA236C11D001B052EABE
:101E9000530C18BF90EA010F58BFB2EB030088BF84
:101EA000C81738BF6FEAE17018BF40F001007047F3
:101EB0007FEA226C02D15FEA402C05D17FEA236CD5
:101EC000E4D15FEA412CE1D05DF8040B704700BF1C
:101ED000844608466146FFE70FB5FFF7C9FF0028B3
:101EE00048BF10F1000F0FBD4DF808EDFFF7F4FFEC
:101EF0000CBF012000205DF808FB00BF4DF808ED85
:101F0000FFF7EAFF34BF012000205DF808FB00BFA7
:101F10004DF808EDFFF7E0FF94BF012000205DF8C9
:101F200008FB00BF4DF808EDFFF7D2FF94BF01207A
:101F300000205DF808FB00BF4DF808EDFFF7C8FF73
:101F400034BF012000205DF808FB00BF42000ED224
:101F5000B2F1FE4F0BD34FF09E03B3EB126209D4E4
:101F60004FEA002343F0004323FA02F070474FF09A
:101F70000000704712F1610F01D1420202D14FF00F
:101F8000FF3070474FF00000704700BF08B5074BA7
:101F9000044613B10021AFF30080054B1868836A33
:101FA00003B19847204600F095FC00BF00000000F8
:101FB000582A0000034613F8012B002AFBD1181AF7
:101FC0000138704700B59BB0009104916FF000415B
:101FD0000591029105490391694600F06FF80022CE
:101FE000009B1A701BB05DF804FB00BF0802FFFFE6
:101FF00013460A46014602480068FFF7E3BF00BFE8
:10200000A80202002DE9F0478E6882469E420C46E7
:1020100090461F4638D88A8912F4906F32D02568CE
:1020200009690133A5EB010965694B4405EB4505D9
:1020300005EBD5756D109D4238BF1D46530531D552
:10204000294600F06FFB064650B90C234FF0FF30D5
:10205000CAF80030A38943F04003A381BDE8F087AC
:102060004A46216900F0CEFAA38923F4906343F035
:102070008003A38126614E4426603E466561A5EB40
:102080000905A560BE4200D93E4632464146206859
:1020900000F0C6FAA36800209B1BA36023683344AA
:1020A0002360DBE72A4600F0B1FB06460028E1D1B9
:1020B0005046216900F0CEFAC7E700002DE9F04F45
:1020C00098468B8907461B060D4614469DB00ED5D3
:1020D0000B6963B9402100F025FB2860286120B915
:1020E0000C233B604FF0FF30D1E040236B610023B5
:1020F000099320238DF8293030234FF00109CDF8C2
:102100000C80DFF8A4818DF82A3023469A4613F814
:10211000012B0AB1252AF9D1BAEB040B0BD05B468F
:10212000224629463846FFF76DFF013000F0AA80AD
:10213000099A5A4409929AF80030002B00F0A280C4
:1021400000234FF0FF32CDE905230AF1010A049381
:1021500007938DF853301A935446052214F8011B47
:10216000514800F041FA049AD8B9D00644BF202360
:102170008DF85330110744BF2B238DF853309AF854
:1021800000302A2B15D0544600204FF00A0C079A35
:10219000214611F8013B303B092B4ED9B0B10792D3
:1021A00014E0A0EB080309FA03F31343A2460493D7
:1021B000D2E7039B191D1B680391002BBBBF5B4239
:1021C00042F0020207930793B8BF049223782E2BA4
:1021D0000CD163782A2B35D1039B02341A1D1B685E
:1021E0000392002BB8BF4FF0FF330593DFF8BCA07C
:1021F00003225046217800F0F7F940B14023A0EBCC
:102200000A0003FA00F0049B01340343049314F81A
:10221000011B062226488DF8281000F0E5F9002859
:1022200038D0244B1BBB039B073323F00703083331
:102230000393099B3344099367E70C4601200CFB89
:102240000232A5E700234FF00A0C1946013405932A
:10225000204610F8012B303A092A03D9002BC5D0AB
:102260000591C3E7044601230CFB0121F0E703AB12
:1022700000932A463846104B04A9AFF30080421C55
:102280000646D6D1AB895B063FF52CAF09981DB049
:10229000BDE8F08F03AB00932A463846064B04A9ED
:1022A00000F07CF8EBE700BF5C2A0000622A000027
:1022B000662A000000000000052000002DE9F0471C
:1022C000164699468A680B6907469342B8BF13467B
:1022D000336091F843200C46DDF820800AB10133C9
:1022E00033602368990642BF336802333360256840
:1022F00015F0060506D104F1190AE36832689B1A45
:10230000AB4228DC94F84320131E226818BF012337
:1023100092062DD44946384604F14302C0470130A5
:1023200020D02368E56803F00603042B18BF0025BE
:1023300032684FF00006A36808BFAD1A226908BFD3
:1023400025EAE5759342C4BF9B1AED181A34B542CD
:102350001AD1002008E00123524649463846C047BA
:10236000013003D14FF0FF30BDE8F0870135C4E7FD
:102370003020E11881F843005A1C94F8451022449B
:10238000023382F84310C5E7012322464946384606
:10239000C0470130E6D00136D9E700002DE9FF47FC
:1023A0000F7E9146782F80460C469A460C9D01F18F
:1023B000430207D8622F0AD8002F00F0D980582F87
:1023C00000F0A48004F1420584F842703AE0A7F1DD
:1023D0006303152BF6D801A151F823F03524000032
:1023E00049240000C5230000C5230000C5230000C8
:1023F000C523000049240000C5230000C5230000B8
:10240000C5230000C52300005725000079240000E3
:1024100039250000C5230000C523000079250000F0
:10242000C523000079240000C5230000C523000057
:10243000412500002B681A1D1B682A6004F1420523
:1024400084F842300123A4E020682968060601F1DF
:1024500004030AD50E682B60002E03DA2D23764282
:1024600084F843300A235E4819E00E6810F0400FEC
:102470002B6018BF36B2EFE72B682068191D296062
:10248000010601D51E6802E04606FBD51E886F2FA7
:102490000CBF08230A235248002184F843106568C2
:1024A000002DA8BF2168A560A4BF21F00401216010
:1024B0000EB9002D4DD01546B6FBF3F103FB1167A5
:1024C000C75D05F8017D3746BB420E46F4D9082B9F
:1024D0000BD12368DE0708D5236961689942DEBF06
:1024E000302305F8013C05F1FF35521B22614B46B4
:1024F00021464046CDF800A003AAFFF7DFFE0130D9
:102500004CD14FF0FF3004B0BDE8F087344881F87B
:1025100045702968236851F8046B29601D0614D59D
:10252000DF0744BF43F0200323601EB9236823F074
:10253000200323601023AFE7236843F020032360C8
:102540007823284884F84530E3E7590648BFB6B2F7
:10255000E6E71546BBE72B682668181D6169286009
:1025600035061B6801D5196002E07006FBD519809D
:10257000002315462361BAE72B6800211A1D2A6043
:102580001D686268284600F02FF808B1401B6060A3
:1025900063682361002384F84330A8E72A4649464C
:1025A00040462369D0470130ABD023689B0713D442
:1025B000E068039B9842B8BF1846A4E7012332465F
:1025C00049464046D04701309BD00135E368039926
:1025D0005B1AAB42F2DCEBE7002504F11906F5E7E4
:1025E0006D2A00007E2A0000034610B5C9B20244DD
:1025F0009342184601D1002003E0047801338C4255
:10260000F6D110BD0A44914200F1FF3300D170476A
:1026100010B511F8014B914203F8014FF9D110BDEB
:10262000884210B501EB020402D98442234607D840
:10263000431EA14208D011F8012B03F8012FF8E73F
:10264000014602448A4200D110BD13F8014D02F840
:10265000014DF7E738B50546002940D051F8043C54
:102660000C1F002BB8BFE41800F010F91C4A1368C7
:1026700033B9636014602846BDE8384000F00CB9F7
:10268000A34208D9206821188B4201BF19685B68F2
:1026900009182160EDE71A465B680BB1A342FAD92D
:1026A00011685018A0420BD1206801445018834291
:1026B0001160E0D118685B68014411605360DAE78B
:1026C00002D90C232B60D6E7206821188B4201BF6A
:1026D00019685B680918216063605460CBE738BDF6
:1026E0006C04020070B50E4E0C463168054611B9F7
:1026F00000F0BCF830602146284600F0B7F8431CD3
:102700000AD0C41C24F00304A04207D0211A284692
:1027100000F0ACF8013001D14FF0FF34204670BD1D
:10272000700402002DE9F041CD1C25F003050835A9
:102730000C2D38BF0C25002D074601DBA94205D919
:102740000C2300263B603046BDE8F0812E4E00F0A1
:102750009DF833681C4634BB29463846FFF7C2FF54
:10276000431C04464DD134682646002E40D12368D0
:102770003146384604EB030800F078F880453AD13A
:10278000216803356D1A25F0030508350C2D38BF77
:102790000C2538462946FFF7A5FF01302BD02368CA
:1027A0002B4423600EE02268521B1ED40B2A16D93C
:1027B0006119A342256018BF5960636808BF316082
:1027C00062514B60384604F10B0600F065F826F0C4
:1027D0000706231DF21AB6D09B1BA350B3E762680D
:1027E000A3420CBF32605A60ECE723466468B2E74C
:1027F00034467668B9E70C2338463B6000F04CF865
:10280000A1E72560DEE700BF6C0402002DE9F0417E
:10281000804614460E4621B91146BDE8F041FFF747
:1028200081BF2AB9FFF716FF25462846BDE8F0818B
:1028300000F038F88442074602D8B4EB500F12D8A3
:1028400021464046FFF76EFF05460028EDD0BC420A
:102850002246314628BF3A46FFF7D4FE314640466D
:10286000FFF7F8FEE1E73546DFE7000038B5002363
:10287000054D044608462B6000F01EF8431C02D1AB
:102880002B6803B1236038BD74040200014800F0D6
:1028900011B800BF78040200014800F00CB800BF76
:1028A0007804020051F8043C181F002BBCBF0B58E1
:1028B000C018704770477047044A05491368002BD9
:1028C00008BF0B4618441060184670477C0402008D
:1028D00080040200FEE700BFF8B500BFF8BC08BCEA
:1028E0009E467047F8B500BFF8BC08BC9E467047CE
:1028F0005374617475732025640D0A005370656507
:1029000064207365742025640D0A0000437572729B
:10291000656E742073706565642025640D0A00007F
:1029200043757272656E7420646972656374696F51
:102930006E2025640D0A00004572726F72202564B6
:102940000D0A00004E4D49005B544553545D205321
:10295000686F772074657374206D656E752E2E2EEA
:102960000D0A00005B25635D202573005B54455311
:10297000545D205072657373206B657920746F20ED
:1029800065786563757465206F7220275127207400
:102990006F20657869742E2E2E0D0A00496E7075B1
:1029A000742025632E2E2E0D0A0000005B54455323
:1029B000545D205465737420656E64732E2E2E0D45
:1029C0000A0D0A005B544553545D205374617274C0
:1029D0003A2573005B544553545D20456E643A2597
:1029E00073000000496E707574206572726F722EEC
:1029F0002E2E0D0A00000000524F2025640D0A0003
:102A000052432025640D0A004443206D6F746F7299
:102A100020776974682074623636313220617070B4
:102A20006C69636174696F6E732E2E2E0D0A00003F
:102A30004661756C742064657465637465642120F7
:102A400053797374656D2064697361626C65642E7B
:102A50002E2E0D0A00000000AC020200232D302BA8
:102A60002000686C4C00656667454647003031328F
:102A700033343536373839414243444546003031E6
:102A80003233343536373839616263646566000045
:042A90000000000042
:102A940031000000A50200005B44434D363631325C
:102AA4005D2044434D2073797374656D20656E61B8
:102AB400626C652E2E2E0D0A00000000000000003E
:102AC4000000000000000000000000000000000002
:102AD40000000000000000000000000000000000F2
:102AE40000000000000000000000000000000000E2
:102AF40000000000000000000000000000000000D2
:102B040000000000000000000000000000000000C1
:102B1400000000000000000032000000E902000094
:102B24005B44434D363631325D2044434D20737946
:102B34007374656D2064697361626C652E2E2E0D4D
:102B44000A00000000000000000000000000000077
:102B54000000000000000000000000000000000071
:102B64000000000000000000000000000000000061
:102B74000000000000000000000000000000000051
:102B84000000000000000000000000000000000041
:102B94000000000000000000000000000000000031
:102BA400330000004D0300005B44434D36363132A0
:102BB4005D2044434D2073706565642075702E2E2E
:102BC4002E0D0A00000000000000000000000000BC
:102BD40000000000000000000000000000000000F1
:102BE40000000000000000000000000000000000E1
:102BF40000000000000000000000000000000000D1
:102C040000000000000000000000000000000000C0
:102C140000000000000000000000000000000000B0
:102C2400000000000000000034000000CD0300009C
:102C34005B44434D363631325D2044434D2073703E
:102C440065656420646F776E2E2E2E0D0A000000D9
:102C54000000000000000000000000000000000070
:102C64000000000000000000000000000000000060
:102C74000000000000000000000000000000000050
:102C84000000000000000000000000000000000040
:102C94000000000000000000000000000000000030
:102CA4000000000000000000000000000000000020
:102CB40071000000F90200005B44434D36363132A6
:102CC4005D2044434D20737461747573206469738B
:102CD400706C61792E2E2E0D0A0000000000000099
:102CE40000000000000000000000000000000000E0
:102CF40000000000000000000000000000000000D0
:102D040000000000000000000000000000000000BF
:102D140000000000000000000000000000000000AF
:102D2400000000000000000000000000000000009F
:102D34000000000000000000AC02020000000000DF
:102D4400000000000000000000000000000000007F
:102D5400000000000000000000000000000000006F
:102D6400000000000000000000000000000000005F
:102D7400000000000000000000000000000000004F
:102D8400000000000000000000000000000000003F
:102D9400000000000000000000000000B10000007E
:042DA4008D0000009E
:04000003000010C128
:00000001FF
